{
  "contractName": "Evaluator2",
  "abi": [
    {
      "inputs": [
        {
          "internalType": "contract ERC20TD",
          "name": "_TDERC20",
          "type": "address"
        }
      ],
      "stateMutability": "nonpayable",
      "type": "constructor"
    },
    {
      "anonymous": false,
      "inputs": [
        {
          "indexed": false,
          "internalType": "address",
          "name": "erc20Address",
          "type": "address"
        }
      ],
      "name": "constructedCorrectly",
      "type": "event"
    },
    {
      "anonymous": false,
      "inputs": [
        {
          "indexed": false,
          "internalType": "string",
          "name": "name",
          "type": "string"
        },
        {
          "indexed": false,
          "internalType": "uint256",
          "name": "legs",
          "type": "uint256"
        },
        {
          "indexed": false,
          "internalType": "uint256",
          "name": "sex",
          "type": "uint256"
        },
        {
          "indexed": false,
          "internalType": "bool",
          "name": "wings",
          "type": "bool"
        }
      ],
      "name": "newRandomAnimalAttributes",
      "type": "event"
    },
    {
      "stateMutability": "payable",
      "type": "fallback"
    },
    {
      "inputs": [
        {
          "internalType": "address",
          "name": "",
          "type": "address"
        }
      ],
      "name": "assignedRank",
      "outputs": [
        {
          "internalType": "uint256",
          "name": "",
          "type": "uint256"
        }
      ],
      "stateMutability": "view",
      "type": "function"
    },
    {
      "inputs": [
        {
          "internalType": "address",
          "name": "",
          "type": "address"
        },
        {
          "internalType": "uint256",
          "name": "",
          "type": "uint256"
        }
      ],
      "name": "exerciceProgression",
      "outputs": [
        {
          "internalType": "bool",
          "name": "",
          "type": "bool"
        }
      ],
      "stateMutability": "view",
      "type": "function"
    },
    {
      "inputs": [
        {
          "internalType": "address",
          "name": "",
          "type": "address"
        }
      ],
      "name": "hasBeenPaired",
      "outputs": [
        {
          "internalType": "bool",
          "name": "",
          "type": "bool"
        }
      ],
      "stateMutability": "view",
      "type": "function"
    },
    {
      "inputs": [],
      "name": "nextValueStoreRank",
      "outputs": [
        {
          "internalType": "uint256",
          "name": "",
          "type": "uint256"
        }
      ],
      "stateMutability": "view",
      "type": "function"
    },
    {
      "inputs": [
        {
          "internalType": "address",
          "name": "",
          "type": "address"
        }
      ],
      "name": "studentExerciceSolution",
      "outputs": [
        {
          "internalType": "contract IExerciceSolution",
          "name": "",
          "type": "address"
        }
      ],
      "stateMutability": "view",
      "type": "function"
    },
    {
      "inputs": [
        {
          "internalType": "address",
          "name": "",
          "type": "address"
        }
      ],
      "name": "teachers",
      "outputs": [
        {
          "internalType": "bool",
          "name": "",
          "type": "bool"
        }
      ],
      "stateMutability": "view",
      "type": "function"
    },
    {
      "stateMutability": "payable",
      "type": "receive"
    },
    {
      "inputs": [],
      "name": "ex2a_getAnimalToCreateAttributes",
      "outputs": [],
      "stateMutability": "nonpayable",
      "type": "function"
    },
    {
      "inputs": [
        {
          "internalType": "uint256",
          "name": "parent1",
          "type": "uint256"
        },
        {
          "internalType": "uint256",
          "name": "parent2",
          "type": "uint256"
        }
      ],
      "name": "ex7a_breedAnimalWithParents",
      "outputs": [],
      "stateMutability": "nonpayable",
      "type": "function"
    },
    {
      "inputs": [],
      "name": "ex7b_offerAnimalForReproduction",
      "outputs": [],
      "stateMutability": "nonpayable",
      "type": "function"
    },
    {
      "inputs": [
        {
          "internalType": "uint256",
          "name": "animalAvailableForReproduction",
          "type": "uint256"
        }
      ],
      "name": "ex7c_payForReproduction",
      "outputs": [],
      "stateMutability": "nonpayable",
      "type": "function"
    },
    {
      "inputs": [
        {
          "internalType": "contract IExerciceSolution",
          "name": "studentExercice",
          "type": "address"
        }
      ],
      "name": "submitExercice",
      "outputs": [],
      "stateMutability": "nonpayable",
      "type": "function"
    },
    {
      "inputs": [
        {
          "internalType": "bytes32",
          "name": "_bytes32",
          "type": "bytes32"
        }
      ],
      "name": "bytes32ToString",
      "outputs": [
        {
          "internalType": "string",
          "name": "",
          "type": "string"
        }
      ],
      "stateMutability": "pure",
      "type": "function"
    },
    {
      "inputs": [
        {
          "internalType": "address",
          "name": "studentAddres",
          "type": "address"
        }
      ],
      "name": "readName",
      "outputs": [
        {
          "internalType": "string",
          "name": "",
          "type": "string"
        }
      ],
      "stateMutability": "view",
      "type": "function"
    },
    {
      "inputs": [
        {
          "internalType": "address",
          "name": "studentAddres",
          "type": "address"
        }
      ],
      "name": "readLegs",
      "outputs": [
        {
          "internalType": "uint256",
          "name": "",
          "type": "uint256"
        }
      ],
      "stateMutability": "view",
      "type": "function"
    },
    {
      "inputs": [
        {
          "internalType": "address",
          "name": "studentAddres",
          "type": "address"
        }
      ],
      "name": "readSex",
      "outputs": [
        {
          "internalType": "uint256",
          "name": "",
          "type": "uint256"
        }
      ],
      "stateMutability": "view",
      "type": "function"
    },
    {
      "inputs": [
        {
          "internalType": "address",
          "name": "studentAddres",
          "type": "address"
        }
      ],
      "name": "readWings",
      "outputs": [
        {
          "internalType": "bool",
          "name": "",
          "type": "bool"
        }
      ],
      "stateMutability": "view",
      "type": "function"
    },
    {
      "inputs": [
        {
          "internalType": "string[20]",
          "name": "_randomNames",
          "type": "string[20]"
        },
        {
          "internalType": "uint256[20]",
          "name": "_randomLegs",
          "type": "uint256[20]"
        },
        {
          "internalType": "uint256[20]",
          "name": "_randomSex",
          "type": "uint256[20]"
        },
        {
          "internalType": "bool[20]",
          "name": "_randomWings",
          "type": "bool[20]"
        }
      ],
      "name": "setRandomValuesStore",
      "outputs": [],
      "stateMutability": "nonpayable",
      "type": "function"
    }
  ],
  "bytecode": "0x60806040523480156200001157600080fd5b506040516200463b3803806200463b8339818101604052620000379190810190620000f1565b80600160006101000a81548173ffffffffffffffffffffffffffffffffffffffff021916908373ffffffffffffffffffffffffffffffffffffffff1602179055507f2915b3b4e0613c6b63dca39a375dd8c9f1de68d9e208a0713b7624260e2d0812600160009054906101000a900473ffffffffffffffffffffffffffffffffffffffff16604051620000cb91906200012e565b60405180910390a150620001ad565b600081519050620000eb8162000193565b92915050565b6000602082840312156200010457600080fd5b60006200011484828501620000da565b91505092915050565b62000128816200014b565b82525050565b60006020820190506200014560008301846200011d565b92915050565b6000620001588262000173565b9050919050565b60006200016c826200014b565b9050919050565b600073ffffffffffffffffffffffffffffffffffffffff82169050919050565b6200019e816200015f565b8114620001aa57600080fd5b50565b61447e80620001bd6000396000f3fe6080604052600436106101025760003560e01c8063721c51fb11610095578063df67f59d11610064578063df67f59d1461034d578063e50fb4271461038a578063e9847a75146103b3578063f0a47f78146103f0578063f4fdbb881461042d57610109565b8063721c51fb14610293578063806df959146102bc5780639201de55146102f95780639aa99dd61461033657610109565b806339119dce116100d157806339119dce146101c55780634466f62d146101f0578063469d2a831461022d578063614933ba1461026a57610109565b80630b9612541461010b5780632236d353146101485780632407dd58146101715780632e64c5001461018857610109565b3661010957005b005b34801561011757600080fd5b50610132600480360361012d9190810190613317565b61046a565b60405161013f9190613dfc565b60405180910390f35b34801561015457600080fd5b5061016f600480360361016a9190810190613475565b61049d565b005b34801561017d57600080fd5b506101866105cd565b005b34801561019457600080fd5b506101af60048036036101aa9190810190613369565b610ff1565b6040516101bc9190613de1565b60405180910390f35b3480156101d157600080fd5b506101da611020565b6040516101e791906140c5565b60405180910390f35b3480156101fc57600080fd5b5061021760048036036102129190810190613317565b611026565b60405161022491906140c5565b60405180910390f35b34801561023957600080fd5b50610254600480360361024f9190810190613317565b61103e565b60405161026191906140c5565b60405180910390f35b34801561027657600080fd5b50610291600480360361028c91908101906133a5565b611095565b005b34801561029f57600080fd5b506102ba60048036036102b59190810190613519565b611239565b005b3480156102c857600080fd5b506102e360048036036102de9190810190613317565b611e94565b6040516102f09190613e17565b60405180910390f35b34801561030557600080fd5b50610320600480360361031b919081019061344c565b611f83565b60405161032d9190613e17565b60405180910390f35b34801561034257600080fd5b5061034b6120e0565b005b34801561035957600080fd5b50610374600480360361036f9190810190613317565b61214c565b60405161038191906140c5565b60405180910390f35b34801561039657600080fd5b506103b160048036036103ac919081019061356b565b6121a3565b005b3480156103bf57600080fd5b506103da60048036036103d59190810190613317565b612d01565b6040516103e79190613de1565b60405180910390f35b3480156103fc57600080fd5b5061041760048036036104129190810190613317565b612d6c565b6040516104249190613de1565b60405180910390f35b34801561043957600080fd5b50610454600480360361044f9190810190613317565b612d8c565b6040516104619190613de1565b60405180910390f35b60036020528060005260406000206000915054906101000a900473ffffffffffffffffffffffffffffffffffffffff1681565b600460008273ffffffffffffffffffffffffffffffffffffffff1673ffffffffffffffffffffffffffffffffffffffff16815260200190815260200160002060009054906101000a900460ff16156104f457600080fd5b80600360003373ffffffffffffffffffffffffffffffffffffffff1673ffffffffffffffffffffffffffffffffffffffff16815260200190815260200160002060006101000a81548173ffffffffffffffffffffffffffffffffffffffff021916908373ffffffffffffffffffffffffffffffffffffffff1602179055506001600460008373ffffffffffffffffffffffffffffffffffffffff1673ffffffffffffffffffffffffffffffffffffffff16815260200190815260200160002060006101000a81548160ff02191690831515021790555050565b6000600360003373ffffffffffffffffffffffffffffffffffffffff1673ffffffffffffffffffffffffffffffffffffffff16815260200190815260200160002060009054906101000a900473ffffffffffffffffffffffffffffffffffffffff1673ffffffffffffffffffffffffffffffffffffffff16632f745c593060006040518363ffffffff1660e01b815260040161066a929190613d8f565b60206040518083038186803b15801561068257600080fd5b505afa158015610696573d6000803e3d6000fd5b505050506040513d601f19601f820116820180604052506106ba9190810190613542565b9050600360003373ffffffffffffffffffffffffffffffffffffffff1673ffffffffffffffffffffffffffffffffffffffff16815260200190815260200160002060009054906101000a900473ffffffffffffffffffffffffffffffffffffffff1673ffffffffffffffffffffffffffffffffffffffff16634abda8c8826040518263ffffffff1660e01b815260040161075491906140c5565b602060405180830381600087803b15801561076e57600080fd5b505af1158015610782573d6000803e3d6000fd5b505050506040513d601f19601f820116820180604052506107a69190810190613423565b156107e6576040517f08c379a00000000000000000000000000000000000000000000000000000000081526004016107dd90613e85565b60405180910390fd5b6000600360003373ffffffffffffffffffffffffffffffffffffffff1673ffffffffffffffffffffffffffffffffffffffff16815260200190815260200160002060009054906101000a900473ffffffffffffffffffffffffffffffffffffffff1673ffffffffffffffffffffffffffffffffffffffff16632a4672b2836040518263ffffffff1660e01b815260040161088091906140c5565b60206040518083038186803b15801561089857600080fd5b505afa1580156108ac573d6000803e3d6000fd5b505050506040513d601f19601f820116820180604052506108d09190810190613542565b14610910576040517f08c379a000000000000000000000000000000000000000000000000000000000815260040161090790614065565b60405180910390fd5b600360003373ffffffffffffffffffffffffffffffffffffffff1673ffffffffffffffffffffffffffffffffffffffff16815260200190815260200160002060009054906101000a900473ffffffffffffffffffffffffffffffffffffffff1673ffffffffffffffffffffffffffffffffffffffff1663a0c32c8f82655af3107a40006040518363ffffffff1660e01b81526004016109b09291906140e0565b602060405180830381600087803b1580156109ca57600080fd5b505af11580156109de573d6000803e3d6000fd5b505050506040513d601f19601f82011682018060405250610a029190810190613542565b50600360003373ffffffffffffffffffffffffffffffffffffffff1673ffffffffffffffffffffffffffffffffffffffff16815260200190815260200160002060009054906101000a900473ffffffffffffffffffffffffffffffffffffffff1673ffffffffffffffffffffffffffffffffffffffff16634abda8c8826040518263ffffffff1660e01b8152600401610a9b91906140c5565b602060405180830381600087803b158015610ab557600080fd5b505af1158015610ac9573d6000803e3d6000fd5b505050506040513d601f19601f82011682018060405250610aed9190810190613423565b610b2c576040517f08c379a0000000000000000000000000000000000000000000000000000000008152600401610b2390613ec5565b60405180910390fd5b655af3107a4000600360003373ffffffffffffffffffffffffffffffffffffffff1673ffffffffffffffffffffffffffffffffffffffff16815260200190815260200160002060009054906101000a900473ffffffffffffffffffffffffffffffffffffffff1673ffffffffffffffffffffffffffffffffffffffff16632a4672b2836040518263ffffffff1660e01b8152600401610bcb91906140c5565b60206040518083038186803b158015610be357600080fd5b505afa158015610bf7573d6000803e3d6000fd5b505050506040513d601f19601f82011682018060405250610c1b9190810190613542565b14610c5b576040517f08c379a0000000000000000000000000000000000000000000000000000000008152600401610c5290613ee5565b60405180910390fd5b6000600360003373ffffffffffffffffffffffffffffffffffffffff1673ffffffffffffffffffffffffffffffffffffffff16815260200190815260200160002060009054906101000a900473ffffffffffffffffffffffffffffffffffffffff1673ffffffffffffffffffffffffffffffffffffffff16632f745c593360006040518363ffffffff1660e01b8152600401610cf8929190613d8f565b60206040518083038186803b158015610d1057600080fd5b505afa158015610d24573d6000803e3d6000fd5b505050506040513d601f19601f82011682018060405250610d489190810190613542565b90506000809050600360003373ffffffffffffffffffffffffffffffffffffffff1673ffffffffffffffffffffffffffffffffffffffff16815260200190815260200160002060009054906101000a900473ffffffffffffffffffffffffffffffffffffffff1673ffffffffffffffffffffffffffffffffffffffff1663a0c32c8f83655af3107a40006040518363ffffffff1660e01b8152600401610def9291906140e0565b602060405180830381600087803b158015610e0957600080fd5b505af1925050508015610e3a57506040513d601f19601f82011682018060405250610e379190810190613542565b60015b610e475760009050610e4d565b50600190505b8015610e8e576040517f08c379a0000000000000000000000000000000000000000000000000000000008152600401610e8590613f05565b60405180910390fd5b600260003373ffffffffffffffffffffffffffffffffffffffff1673ffffffffffffffffffffffffffffffffffffffff16815260200190815260200160002060006048815260200190815260200160002060009054906101000a900460ff16610fec576001600260003373ffffffffffffffffffffffffffffffffffffffff1673ffffffffffffffffffffffffffffffffffffffff16815260200190815260200160002060006048815260200190815260200160002060006101000a81548160ff021916908315150217905550600160009054906101000a900473ffffffffffffffffffffffffffffffffffffffff1673ffffffffffffffffffffffffffffffffffffffff1663158a49883360016040518363ffffffff1660e01b8152600401610fb9929190613db8565b600060405180830381600087803b158015610fd357600080fd5b505af1158015610fe7573d6000803e3d6000fd5b505050505b505050565b60026020528160005260406000206020528060005260406000206000915091509054906101000a900460ff1681565b60435481565b60426020528060005260406000206000915090505481565b60006019604260008473ffffffffffffffffffffffffffffffffffffffff1673ffffffffffffffffffffffffffffffffffffffff168152602001908152602001600020546014811061108c57fe5b01549050919050565b600160009054906101000a900473ffffffffffffffffffffffffffffffffffffffff1673ffffffffffffffffffffffffffffffffffffffff1663f0a47f78336040518263ffffffff1660e01b81526004016110f09190613d74565b60206040518083038186803b15801561110857600080fd5b505afa15801561111c573d6000803e3d6000fd5b505050506040513d601f19601f820116820180604052506111409190810190613423565b61114957600080fd5b83600590601461115a929190612e05565b5082601990601461116c929190612e58565b5081602d90601461117e929190612e58565b50806041906014611190929190612e98565b50600060438190555060008090505b6014811015611232577ff2537ffa858a0d83d85a3f54f39afe79a3edb9141e3802a7bde0b3131b60b8148582601481106111d557fe5b60200201518583601481106111e657fe5b60200201518584601481106111f757fe5b602002015185856014811061120857fe5b602002015160405161121d9493929190613e39565b60405180910390a1808060010191505061119f565b5050505050565b600360003373ffffffffffffffffffffffffffffffffffffffff1673ffffffffffffffffffffffffffffffffffffffff16815260200190815260200160002060009054906101000a900473ffffffffffffffffffffffffffffffffffffffff1673ffffffffffffffffffffffffffffffffffffffff16634abda8c8826040518263ffffffff1660e01b81526004016112d191906140c5565b602060405180830381600087803b1580156112eb57600080fd5b505af11580156112ff573d6000803e3d6000fd5b505050506040513d601f19601f820116820180604052506113239190810190613423565b611362576040517f08c379a000000000000000000000000000000000000000000000000000000000815260040161135990613f25565b60405180910390fd5b3073ffffffffffffffffffffffffffffffffffffffff16600360003373ffffffffffffffffffffffffffffffffffffffff1673ffffffffffffffffffffffffffffffffffffffff16815260200190815260200160002060009054906101000a900473ffffffffffffffffffffffffffffffffffffffff1673ffffffffffffffffffffffffffffffffffffffff16636352211e836040518263ffffffff1660e01b815260040161141191906140c5565b60206040518083038186803b15801561142957600080fd5b505afa15801561143d573d6000803e3d6000fd5b505050506040513d601f19601f820116820180604052506114619190810190613340565b73ffffffffffffffffffffffffffffffffffffffff1614156114b8576040517f08c379a00000000000000000000000000000000000000000000000000000000081526004016114af90614045565b60405180910390fd5b6000600360003373ffffffffffffffffffffffffffffffffffffffff1673ffffffffffffffffffffffffffffffffffffffff16815260200190815260200160002060009054906101000a900473ffffffffffffffffffffffffffffffffffffffff1673ffffffffffffffffffffffffffffffffffffffff16632f745c593060006040518363ffffffff1660e01b8152600401611555929190613d8f565b60206040518083038186803b15801561156d57600080fd5b505afa158015611581573d6000803e3d6000fd5b505050506040513d601f19601f820116820180604052506115a59190810190613542565b90503073ffffffffffffffffffffffffffffffffffffffff16600360003373ffffffffffffffffffffffffffffffffffffffff1673ffffffffffffffffffffffffffffffffffffffff16815260200190815260200160002060009054906101000a900473ffffffffffffffffffffffffffffffffffffffff1673ffffffffffffffffffffffffffffffffffffffff166327aa8f31846040518263ffffffff1660e01b815260040161165691906140c5565b602060405180830381600087803b15801561167057600080fd5b505af1158015611684573d6000803e3d6000fd5b505050506040513d601f19601f820116820180604052506116a89190810190613340565b73ffffffffffffffffffffffffffffffffffffffff1614156116ff576040517f08c379a00000000000000000000000000000000000000000000000000000000081526004016116f690613fc5565b60405180910390fd5b6000600360003373ffffffffffffffffffffffffffffffffffffffff1673ffffffffffffffffffffffffffffffffffffffff16815260200190815260200160002060009054906101000a900473ffffffffffffffffffffffffffffffffffffffff1673ffffffffffffffffffffffffffffffffffffffff16632a4672b2846040518263ffffffff1660e01b815260040161179991906140c5565b60206040518083038186803b1580156117b157600080fd5b505afa1580156117c5573d6000803e3d6000fd5b505050506040513d601f19601f820116820180604052506117e99190810190613542565b905060606117f633611e94565b9050600061180333612d01565b905060006118103361103e565b9050600061181d3361214c565b90506000809050600360003373ffffffffffffffffffffffffffffffffffffffff1673ffffffffffffffffffffffffffffffffffffffff16815260200190815260200160002060009054906101000a900473ffffffffffffffffffffffffffffffffffffffff1673ffffffffffffffffffffffffffffffffffffffff1663929c13e3838587898c8e6040518763ffffffff1660e01b81526004016118c696959493929190614109565b602060405180830381600087803b1580156118e057600080fd5b505af192505050801561191157506040513d601f19601f8201168201806040525061190e9190810190613542565b60015b61191e5760009050611924565b50600190505b8015611965576040517f08c379a000000000000000000000000000000000000000000000000000000000815260040161195c90614025565b60405180910390fd5b854710156119a8576040517f08c379a000000000000000000000000000000000000000000000000000000000815260040161199f90613fa5565b60405180910390fd5b600360003373ffffffffffffffffffffffffffffffffffffffff1673ffffffffffffffffffffffffffffffffffffffff16815260200190815260200160002060009054906101000a900473ffffffffffffffffffffffffffffffffffffffff1673ffffffffffffffffffffffffffffffffffffffff1663ff36ed98878a6040518363ffffffff1660e01b8152600401611a4191906140c5565b6000604051808303818588803b158015611a5a57600080fd5b505af1158015611a6e573d6000803e3d6000fd5b50505050503073ffffffffffffffffffffffffffffffffffffffff16600360003373ffffffffffffffffffffffffffffffffffffffff1673ffffffffffffffffffffffffffffffffffffffff16815260200190815260200160002060009054906101000a900473ffffffffffffffffffffffffffffffffffffffff1673ffffffffffffffffffffffffffffffffffffffff166327aa8f318a6040518263ffffffff1660e01b8152600401611b2291906140c5565b602060405180830381600087803b158015611b3c57600080fd5b505af1158015611b50573d6000803e3d6000fd5b505050506040513d601f19601f82011682018060405250611b749190810190613340565b73ffffffffffffffffffffffffffffffffffffffff1614611bca576040517f08c379a0000000000000000000000000000000000000000000000000000000008152600401611bc190614085565b60405180910390fd5b611bd487896121a3565b3073ffffffffffffffffffffffffffffffffffffffff16600360003373ffffffffffffffffffffffffffffffffffffffff1673ffffffffffffffffffffffffffffffffffffffff16815260200190815260200160002060009054906101000a900473ffffffffffffffffffffffffffffffffffffffff1673ffffffffffffffffffffffffffffffffffffffff166327aa8f318a6040518263ffffffff1660e01b8152600401611c8391906140c5565b602060405180830381600087803b158015611c9d57600080fd5b505af1158015611cb1573d6000803e3d6000fd5b505050506040513d601f19601f82011682018060405250611cd59190810190613340565b73ffffffffffffffffffffffffffffffffffffffff161415611d2c576040517f08c379a0000000000000000000000000000000000000000000000000000000008152600401611d2390613ea5565b60405180910390fd5b600260003373ffffffffffffffffffffffffffffffffffffffff1673ffffffffffffffffffffffffffffffffffffffff16815260200190815260200160002060006049815260200190815260200160002060009054906101000a900460ff16611e8a576001600260003373ffffffffffffffffffffffffffffffffffffffff1673ffffffffffffffffffffffffffffffffffffffff16815260200190815260200160002060006049815260200190815260200160002060006101000a81548160ff021916908315150217905550600160009054906101000a900473ffffffffffffffffffffffffffffffffffffffff1673ffffffffffffffffffffffffffffffffffffffff1663158a49883360016040518363ffffffff1660e01b8152600401611e57929190613db8565b600060405180830381600087803b158015611e7157600080fd5b505af1158015611e85573d6000803e3d6000fd5b505050505b5050505050505050565b60606005604260008473ffffffffffffffffffffffffffffffffffffffff1673ffffffffffffffffffffffffffffffffffffffff1681526020019081526020016000205460148110611ee257fe5b018054600181600116156101000203166002900480601f016020809104026020016040519081016040528092919081815260200182805460018160011615610100020316600290048015611f775780601f10611f4c57610100808354040283529160200191611f77565b820191906000526020600020905b815481529060010190602001808311611f5a57829003601f168201915b50505050509050919050565b606060008090505b60208160ff16108015611fd65750600060f81b838260ff1660208110611fad57fe5b1a60f81b7effffffffffffffffffffffffffffffffffffffffffffffffffffffffffffff191614155b15611fe8578080600101915050611f8b565b60608160ff166040519080825280601f01601f1916602001820160405280156120205781602001600182028038833980820191505090505b509050600091505b60208260ff161080156120735750600060f81b848360ff166020811061204a57fe5b1a60f81b7effffffffffffffffffffffffffffffffffffffffffffffffffffffffffffff191614155b156120d657838260ff166020811061208757fe5b1a60f81b818360ff168151811061209a57fe5b60200101907effffffffffffffffffffffffffffffffffffffffffffffffffffffffffffff1916908160001a9053508180600101925050612028565b8092505050919050565b604354604260003373ffffffffffffffffffffffffffffffffffffffff1673ffffffffffffffffffffffffffffffffffffffff16815260200190815260200160002081905550600160436000828254019250508190555060146043541061214a5760006043819055505b565b6000602d604260008473ffffffffffffffffffffffffffffffffffffffff1673ffffffffffffffffffffffffffffffffffffffff168152602001908152602001600020546014811061219a57fe5b01549050919050565b6000600360003373ffffffffffffffffffffffffffffffffffffffff1673ffffffffffffffffffffffffffffffffffffffff16815260200190815260200160002060009054906101000a900473ffffffffffffffffffffffffffffffffffffffff1673ffffffffffffffffffffffffffffffffffffffff166370a08231306040518263ffffffff1660e01b815260040161223d9190613d74565b60206040518083038186803b15801561225557600080fd5b505afa158015612269573d6000803e3d6000fd5b505050506040513d601f19601f8201168201806040525061228d9190810190613542565b9050606061229a33611e94565b905060006122a733612d01565b905060006122b43361103e565b905060006122c13361214c565b9050600073ffffffffffffffffffffffffffffffffffffffff16600360003373ffffffffffffffffffffffffffffffffffffffff1673ffffffffffffffffffffffffffffffffffffffff16815260200190815260200160002060009054906101000a900473ffffffffffffffffffffffffffffffffffffffff1673ffffffffffffffffffffffffffffffffffffffff16636352211e896040518263ffffffff1660e01b815260040161237391906140c5565b60206040518083038186803b15801561238b57600080fd5b505afa15801561239f573d6000803e3d6000fd5b505050506040513d601f19601f820116820180604052506123c39190810190613340565b73ffffffffffffffffffffffffffffffffffffffff16141561241a576040517f08c379a000000000000000000000000000000000000000000000000000000000815260040161241190613f65565b60405180910390fd5b600073ffffffffffffffffffffffffffffffffffffffff16600360003373ffffffffffffffffffffffffffffffffffffffff1673ffffffffffffffffffffffffffffffffffffffff16815260200190815260200160002060009054906101000a900473ffffffffffffffffffffffffffffffffffffffff1673ffffffffffffffffffffffffffffffffffffffff16636352211e886040518263ffffffff1660e01b81526004016124ca91906140c5565b60206040518083038186803b1580156124e257600080fd5b505afa1580156124f6573d6000803e3d6000fd5b505050506040513d601f19601f8201168201806040525061251a9190810190613340565b73ffffffffffffffffffffffffffffffffffffffff161415612571576040517f08c379a000000000000000000000000000000000000000000000000000000000815260040161256890613f85565b60405180910390fd5b6000600360003373ffffffffffffffffffffffffffffffffffffffff1673ffffffffffffffffffffffffffffffffffffffff16815260200190815260200160002060009054906101000a900473ffffffffffffffffffffffffffffffffffffffff1673ffffffffffffffffffffffffffffffffffffffff1663929c13e3838587898d8d6040518763ffffffff1660e01b815260040161261596959493929190614109565b602060405180830381600087803b15801561262f57600080fd5b505af1158015612643573d6000803e3d6000fd5b505050506040513d601f19601f820116820180604052506126679190810190613542565b90503073ffffffffffffffffffffffffffffffffffffffff16600360003373ffffffffffffffffffffffffffffffffffffffff1673ffffffffffffffffffffffffffffffffffffffff16815260200190815260200160002060009054906101000a900473ffffffffffffffffffffffffffffffffffffffff1673ffffffffffffffffffffffffffffffffffffffff16636352211e836040518263ffffffff1660e01b815260040161271891906140c5565b60206040518083038186803b15801561273057600080fd5b505afa158015612744573d6000803e3d6000fd5b505050506040513d601f19601f820116820180604052506127689190810190613340565b73ffffffffffffffffffffffffffffffffffffffff16146127be576040517f08c379a00000000000000000000000000000000000000000000000000000000081526004016127b590613fe5565b60405180910390fd5b60018601600360003373ffffffffffffffffffffffffffffffffffffffff1673ffffffffffffffffffffffffffffffffffffffff16815260200190815260200160002060009054906101000a900473ffffffffffffffffffffffffffffffffffffffff1673ffffffffffffffffffffffffffffffffffffffff166370a08231306040518263ffffffff1660e01b815260040161285a9190613d74565b60206040518083038186803b15801561287257600080fd5b505afa158015612886573d6000803e3d6000fd5b505050506040513d601f19601f820116820180604052506128aa9190810190613542565b146128ea576040517f08c379a00000000000000000000000000000000000000000000000000000000081526004016128e1906140a5565b60405180910390fd5b60606000806000600360003373ffffffffffffffffffffffffffffffffffffffff1673ffffffffffffffffffffffffffffffffffffffff16815260200190815260200160002060009054906101000a900473ffffffffffffffffffffffffffffffffffffffff1673ffffffffffffffffffffffffffffffffffffffff1663b75e0750866040518263ffffffff1660e01b815260040161298991906140c5565b600060405180830381600087803b1580156129a357600080fd5b505af11580156129b7573d6000803e3d6000fd5b505050506040513d6000823e3d601f19601f820116820180604052506129e0919081019061349e565b93509350935093506129f28985612dac565b8015612a015750821515881515145b8015612a0c57508187145b8015612a1757508086145b612a56576040517f08c379a0000000000000000000000000000000000000000000000000000000008152600401612a4d90613f45565b60405180910390fd5b600080600360003373ffffffffffffffffffffffffffffffffffffffff1673ffffffffffffffffffffffffffffffffffffffff16815260200190815260200160002060009054906101000a900473ffffffffffffffffffffffffffffffffffffffff1673ffffffffffffffffffffffffffffffffffffffff1663242a0087886040518263ffffffff1660e01b8152600401612af191906140c5565b6040805180830381600087803b158015612b0a57600080fd5b505af1158015612b1e573d6000803e3d6000fd5b505050506040513d601f19601f82011682018060405250612b4291908101906135a7565b915091508d82148015612b5457508c81145b612b93576040517f08c379a0000000000000000000000000000000000000000000000000000000008152600401612b8a90614005565b60405180910390fd5b600260003373ffffffffffffffffffffffffffffffffffffffff1673ffffffffffffffffffffffffffffffffffffffff16815260200190815260200160002060006047815260200190815260200160002060009054906101000a900460ff16612cf1576001600260003373ffffffffffffffffffffffffffffffffffffffff1673ffffffffffffffffffffffffffffffffffffffff16815260200190815260200160002060006047815260200190815260200160002060006101000a81548160ff021916908315150217905550600160009054906101000a900473ffffffffffffffffffffffffffffffffffffffff1673ffffffffffffffffffffffffffffffffffffffff1663158a49883360016040518363ffffffff1660e01b8152600401612cbe929190613db8565b600060405180830381600087803b158015612cd857600080fd5b505af1158015612cec573d6000803e3d6000fd5b505050505b5050505050505050505050505050565b60006041604260008473ffffffffffffffffffffffffffffffffffffffff1673ffffffffffffffffffffffffffffffffffffffff1681526020019081526020016000205460148110612d4f57fe5b602091828204019190069054906101000a900460ff169050919050565b60006020528060005260406000206000915054906101000a900460ff1681565b60046020528060005260406000206000915054906101000a900460ff1681565b600081604051602001612dbf9190613d5d565b6040516020818303038152906040528051906020012083604051602001612de69190613d5d565b6040516020818303038152906040528051906020012014905092915050565b8260148101928215612e47579160200282015b82811115612e46578251829080519060200190612e36929190612f31565b5091602001919060010190612e18565b5b509050612e549190612fb1565b5090565b8260148101928215612e87579160200282015b82811115612e86578251825591602001919060010190612e6b565b5b509050612e949190612fdd565b5090565b826014601f01602090048101928215612f205791602002820160005b83821115612ef157835183826101000a81548160ff0219169083151502179055509260200192600101602081600001049283019260010302612eb4565b8015612f1e5782816101000a81549060ff0219169055600101602081600001049283019260010302612ef1565b505b509050612f2d9190613002565b5090565b828054600181600116156101000203166002900490600052602060002090601f016020900481019282601f10612f7257805160ff1916838001178555612fa0565b82800160010185558215612fa0579182015b82811115612f9f578251825591602001919060010190612f84565b5b509050612fad9190612fdd565b5090565b612fda91905b80821115612fd65760008181612fcd9190613032565b50600101612fb7565b5090565b90565b612fff91905b80821115612ffb576000816000905550600101612fe3565b5090565b90565b61302f91905b8082111561302b57600081816101000a81549060ff021916905550600101613008565b5090565b90565b50805460018160011615610100020316600290046000825580601f106130585750613077565b601f0160209004906000526020600020908101906130769190612fdd565b5b50565b600081359050613089816143d5565b92915050565b60008151905061309e816143d5565b92915050565b600082601f8301126130b557600080fd5b60146130c86130c38261419e565b614171565b915081838560208402820111156130de57600080fd5b60005b8381101561310e57816130f488826131f1565b8452602084019350602083019250506001810190506130e1565b5050505092915050565b600082601f83011261312957600080fd5b601461313c613137826141c0565b614171565b9150818360005b8381101561317357813586016131598882613245565b845260208401935060208301925050600181019050613143565b5050505092915050565b600082601f83011261318e57600080fd5b60146131a161319c826141e2565b614171565b915081838560208402820111156131b757600080fd5b60005b838110156131e757816131cd88826132ed565b8452602084019350602083019250506001810190506131ba565b5050505092915050565b600081359050613200816143ec565b92915050565b600081519050613215816143ec565b92915050565b60008135905061322a81614403565b92915050565b60008135905061323f8161441a565b92915050565b600082601f83011261325657600080fd5b813561326961326482614204565b614171565b9150808252602083016020830185838301111561328557600080fd5b613290838284614382565b50505092915050565b600082601f8301126132aa57600080fd5b81516132bd6132b882614230565b614171565b915080825260208301602083018583830111156132d957600080fd5b6132e4838284614391565b50505092915050565b6000813590506132fc81614431565b92915050565b60008151905061331181614431565b92915050565b60006020828403121561332957600080fd5b60006133378482850161307a565b91505092915050565b60006020828403121561335257600080fd5b60006133608482850161308f565b91505092915050565b6000806040838503121561337c57600080fd5b600061338a8582860161307a565b925050602061339b858286016132ed565b9150509250929050565b6000806000806107a085870312156133bc57600080fd5b600085013567ffffffffffffffff8111156133d657600080fd5b6133e287828801613118565b94505060206133f38782880161317d565b9350506102a06134058782880161317d565b925050610520613417878288016130a4565b91505092959194509250565b60006020828403121561343557600080fd5b600061344384828501613206565b91505092915050565b60006020828403121561345e57600080fd5b600061346c8482850161321b565b91505092915050565b60006020828403121561348757600080fd5b600061349584828501613230565b91505092915050565b600080600080608085870312156134b457600080fd5b600085015167ffffffffffffffff8111156134ce57600080fd5b6134da87828801613299565b94505060206134eb87828801613206565b93505060406134fc87828801613302565b925050606061350d87828801613302565b91505092959194509250565b60006020828403121561352b57600080fd5b6000613539848285016132ed565b91505092915050565b60006020828403121561355457600080fd5b600061356284828501613302565b91505092915050565b6000806040838503121561357e57600080fd5b600061358c858286016132ed565b925050602061359d858286016132ed565b9150509250929050565b600080604083850312156135ba57600080fd5b60006135c885828601613302565b92505060206135d985828601613302565b9150509250929050565b6135ec816142f2565b82525050565b6135fb816142a0565b82525050565b61360a81614304565b82525050565b61361981614328565b82525050565b6136288161433a565b82525050565b6136378161434c565b82525050565b600061364882614267565b6136528185614272565b9350613662818560208601614391565b61366b816143c4565b840191505092915050565b600061368182614267565b61368b8185614283565b935061369b818560208601614391565b80840191505092915050565b60006136b28261425c565b6136bc8185614272565b93506136cc818560208601614391565b6136d5816143c4565b840191505092915050565b60006136ed602d83614272565b91507f416e696d616c206e6f7420666f7220617661696c61626c6520666f722072657060008301527f726f64756374696f6e20796574000000000000000000000000000000000000006020830152604082019050919050565b6000613753602183614272565b91507f492073686f756c64206e6f742062652061626c6520746f20726570726f64756360008301527f65000000000000000000000000000000000000000000000000000000000000006020830152604082019050919050565b60006137b9601f83614272565b91507f416e696d616c20726570726f64756374696f6e206e6f74206f666665726564006000830152602082019050919050565b60006137f9602683614272565b91507f416e696d616c20726570726f64756374696f6e20707269636520697320696e6360008301527f6f727265637400000000000000000000000000000000000000000000000000006020830152604082019050919050565b600061385f603983614272565b91507f49207761732061626c6520746f20736574206120707269636520666f7220616e60008301527f20616e696d616c207768696368206973206e6f74206d696e65000000000000006020830152604082019050919050565b60006138c5603183614272565b91507f4f66666572656420616e696d616c206e6f7420617661696c61626c6520666f7260008301527f20726570726f64756374696f6e207965740000000000000000000000000000006020830152604082019050919050565b600061392b603383614272565b91507f4372656174656420616e696d616c20646f65736e2774206861766520636f727260008301527f65637420636861726163746572697374696373000000000000000000000000006020830152604082019050919050565b6000613991601483614272565b91507f506172656e743120686173206e6f206f776e65720000000000000000000000006000830152602082019050919050565b60006139d1601483614272565b91507f506172656e743220686173206e6f206f776e65720000000000000000000000006000830152602082019050919050565b6000613a11602983614272565b91507f596f757220726570726f64756374696f6e20697320746f6f20657870656e736960008301527f766520666f72206d6500000000000000000000000000000000000000000000006020830152604082019050919050565b6000613a77602183614272565b91507f4920616d20616c726561647920616c6c6f77656420746f20726570726f64756360008301527f65000000000000000000000000000000000000000000000000000000000000006020830152604082019050919050565b6000613add602a83614272565b91507f4372656174656420616e696d616c20646f65736e27742062656c6f6e6720746f60008301527f204576616c7561746f72000000000000000000000000000000000000000000006020830152604082019050919050565b6000613b43602383614272565b91507f506172656e747320617265206e6f742072657472696576656420636f7272656360008301527f746c7900000000000000000000000000000000000000000000000000000000006020830152604082019050919050565b6000613ba9602d83614272565b91507f49207761732061626c6520746f20726570726f6475636520616e20756e61766160008301527f696c61626c6520616e696d616c000000000000000000000000000000000000006020830152604082019050919050565b6000613c0f602c83614272565b91507f4f66666572656420616e696d616c2073686f756c646e27742062656c6f6e672060008301527f746f204576616c7561746f7200000000000000000000000000000000000000006020830152604082019050919050565b6000613c75601e83614272565b91507f416e696d616c206e6f742073656c6c696e6720686973206173732079657400006000830152602082019050919050565b6000613cb5601d83614272565b91507f4920616d206e6f7420616c6c6f77656420746f20726570726f647563650000006000830152602082019050919050565b6000613cf5602283614272565b91507f4576616c7561746f722062616c616e636520646964206e6f7420696e6372656160008301527f73650000000000000000000000000000000000000000000000000000000000006020830152604082019050919050565b613d57816142e8565b82525050565b6000613d698284613676565b915081905092915050565b6000602082019050613d8960008301846135e3565b92915050565b6000604082019050613da460008301856135e3565b613db16020830184613610565b9392505050565b6000604082019050613dcd60008301856135e3565b613dda602083018461362e565b9392505050565b6000602082019050613df660008301846135f2565b92915050565b6000602082019050613e116000830184613601565b92915050565b60006020820190508181036000830152613e31818461363d565b905092915050565b60006080820190508181036000830152613e5381876136a7565b9050613e626020830186613d4e565b613e6f6040830185613d4e565b613e7c60608301846135f2565b95945050505050565b60006020820190508181036000830152613e9e816136e0565b9050919050565b60006020820190508181036000830152613ebe81613746565b9050919050565b60006020820190508181036000830152613ede816137ac565b9050919050565b60006020820190508181036000830152613efe816137ec565b9050919050565b60006020820190508181036000830152613f1e81613852565b9050919050565b60006020820190508181036000830152613f3e816138b8565b9050919050565b60006020820190508181036000830152613f5e8161391e565b9050919050565b60006020820190508181036000830152613f7e81613984565b9050919050565b60006020820190508181036000830152613f9e816139c4565b9050919050565b60006020820190508181036000830152613fbe81613a04565b9050919050565b60006020820190508181036000830152613fde81613a6a565b9050919050565b60006020820190508181036000830152613ffe81613ad0565b9050919050565b6000602082019050818103600083015261401e81613b36565b9050919050565b6000602082019050818103600083015261403e81613b9c565b9050919050565b6000602082019050818103600083015261405e81613c02565b9050919050565b6000602082019050818103600083015261407e81613c68565b9050919050565b6000602082019050818103600083015261409e81613ca8565b9050919050565b600060208201905081810360008301526140be81613ce8565b9050919050565b60006020820190506140da6000830184613d4e565b92915050565b60006040820190506140f56000830185613d4e565b614102602083018461361f565b9392505050565b600060c08201905061411e6000830189613d4e565b61412b6020830188613d4e565b61413860408301876135f2565b818103606083015261414a818661363d565b90506141596080830185613d4e565b61416660a0830184613d4e565b979650505050505050565b6000604051905081810181811067ffffffffffffffff8211171561419457600080fd5b8060405250919050565b600067ffffffffffffffff8211156141b557600080fd5b602082029050919050565b600067ffffffffffffffff8211156141d757600080fd5b602082029050919050565b600067ffffffffffffffff8211156141f957600080fd5b602082029050919050565b600067ffffffffffffffff82111561421b57600080fd5b601f19601f8301169050602081019050919050565b600067ffffffffffffffff82111561424757600080fd5b601f19601f8301169050602081019050919050565b600081519050919050565b600081519050919050565b600082825260208201905092915050565b600081905092915050565b6000614299826142c8565b9050919050565b60008115159050919050565b6000819050919050565b60006142c18261428e565b9050919050565b600073ffffffffffffffffffffffffffffffffffffffff82169050919050565b6000819050919050565b60006142fd8261435e565b9050919050565b600061430f82614316565b9050919050565b6000614321826142c8565b9050919050565b6000614333826142e8565b9050919050565b6000614345826142e8565b9050919050565b6000614357826142e8565b9050919050565b600061436982614370565b9050919050565b600061437b826142c8565b9050919050565b82818337600083830152505050565b60005b838110156143af578082015181840152602081019050614394565b838111156143be576000848401525b50505050565b6000601f19601f8301169050919050565b6143de8161428e565b81146143e957600080fd5b50565b6143f5816142a0565b811461440057600080fd5b50565b61440c816142ac565b811461441757600080fd5b50565b614423816142b6565b811461442e57600080fd5b50565b61443a816142e8565b811461444557600080fd5b5056fea2646970667358221220fea8f795da6e344edd0d1acf738633322fc63d9967f9717ec3199985e9636b2e64736f6c63430006020033",
  "source": "pragma solidity >=0.6.0;\r\npragma experimental ABIEncoderV2;\r\n\r\nimport \"./ERC20TD.sol\";\r\nimport \"./IExerciceSolution.sol\";\r\n\r\ncontract Evaluator2\r\n{\r\n\r\n\tmapping(address => bool) public teachers;\r\n\tERC20TD TDERC20;\r\n\r\n \tmapping(address => mapping(uint256 => bool)) public exerciceProgression;\r\n \tmapping(address => IExerciceSolution) public studentExerciceSolution;\r\n \tmapping(address => bool) public hasBeenPaired;\r\n \t\r\n\tstring[20] private randomNames;\r\n\tuint256[20] private randomLegs;\r\n\tuint256[20] private randomSex;\r\n\tbool[20] private randomWings;\r\n\tmapping(address => uint256) public assignedRank;\r\n\tuint public nextValueStoreRank;\r\n\r\n \tevent newRandomAnimalAttributes(string name, uint256 legs, uint256 sex, bool wings);\r\n \tevent constructedCorrectly(address erc20Address);\r\n\t\r\n\tconstructor(ERC20TD _TDERC20) \r\n\tpublic \r\n\t{\r\n\t\tTDERC20 = _TDERC20;\r\n\t\temit constructedCorrectly(address(TDERC20));\r\n\t}\r\n\r\n\tfallback () external payable \r\n\t{}\r\n\r\n\treceive () external payable \r\n\t{}\r\n\r\n\tfunction ex2a_getAnimalToCreateAttributes()\r\n\tpublic\r\n\t{\r\n\t\tassignedRank[msg.sender] = nextValueStoreRank;\r\n\t\tnextValueStoreRank += 1;\r\n\t\tif (nextValueStoreRank >= 20)\r\n\t\t{\r\n\t\t\tnextValueStoreRank = 0;\r\n\t\t}\r\n\t}\r\n\r\n\tfunction ex7a_breedAnimalWithParents(uint parent1, uint parent2)\r\n\tpublic\r\n\t{\r\n\t\t// Declare animal with parents\r\n\r\n\t\t// Verify that contract is a registeredBreeder \r\n\t\tuint256 initBalance = studentExerciceSolution[msg.sender].balanceOf(address(this));\r\n\t\tstring memory name = readName(msg.sender);\r\n\t\tbool wings = readWings(msg.sender);\r\n\t\tuint legs = readLegs(msg.sender);\r\n\t\tuint sex = readSex(msg.sender);\r\n\r\n\t\t// Check if parents exist\r\n\t\trequire(studentExerciceSolution[msg.sender].ownerOf(parent1) != address(0), \"Parent1 has no owner\");\r\n\t\trequire(studentExerciceSolution[msg.sender].ownerOf(parent2) != address(0), \"Parent2 has no owner\");\r\n\r\n\t\t// Declare an animal with parents\r\n\t\tuint animalNumber = studentExerciceSolution[msg.sender].declareAnimalWithParents(sex, legs, wings, name, parent1, parent2);\r\n\t\t\r\n\t\t// Check animal belongs to Evaluator\r\n\t\trequire(studentExerciceSolution[msg.sender].ownerOf(animalNumber) == address(this), \"Created animal doesn't belong to Evaluator\");\r\n\t\trequire(studentExerciceSolution[msg.sender].balanceOf(address(this)) == initBalance + 1, \"Evaluator balance did not increase\");\r\n\r\n\t\t// Check that properties are visible \r\n\t\t(string memory _name, bool _wings, uint _legs, uint _sex) = studentExerciceSolution[msg.sender].getAnimalCharacteristics(animalNumber);\r\n\t\trequire(_compareStrings(name,_name) && (wings == _wings) && (legs == _legs) && (sex == _sex), \"Created animal doesn't have correct characteristics\");\r\n\t\t(uint parent1_, uint parent2_) = studentExerciceSolution[msg.sender].getParents(animalNumber);\r\n\t\trequire((parent1_ == parent1) && (parent2_ == parent2), \"Parents are not retrieved correctly\");\r\n\r\n\t\t// Crediting points\r\n\t\tif (!exerciceProgression[msg.sender][71])\r\n\t\t{\r\n\t\t\texerciceProgression[msg.sender][71] = true;\r\n\t\t\tTDERC20.distributeTokens(msg.sender, 1);\r\n\t\t}\r\n\t}\r\n\r\n\tfunction ex7b_offerAnimalForReproduction()\r\n\tpublic\r\n\t{\r\n\t\t// Offer an animal for reproduction. Evaluator must hold at least one animal.\r\n\t\t// Getting an animal id of Evaluator\r\n\t\tuint animalNumber = studentExerciceSolution[msg.sender].tokenOfOwnerByIndex(address(this), 0);\r\n\r\n\t\t// Testing that animal is not for reproduction yet\r\n\t\trequire(!studentExerciceSolution[msg.sender].canReproduce(animalNumber), \"Animal not for available for reproduction yet\" );\r\n\t\trequire(studentExerciceSolution[msg.sender].reproductionPrice(animalNumber) == 0, \"Animal not selling his ass yet\");\r\n\r\n        // Offering animal for reproduction\r\n        studentExerciceSolution[msg.sender].offerForReproduction(animalNumber,  0.0001 ether);\r\n\r\n        // Checking it is for reproduction\r\n        require(studentExerciceSolution[msg.sender].canReproduce(animalNumber), \"Animal reproduction not offered\" );\r\n\t\trequire(studentExerciceSolution[msg.sender].reproductionPrice(animalNumber) == 0.0001 ether, \"Animal reproduction price is incorrect\");\r\n\r\n\t\t// Try to set a reproduction for animals that's not ours. Sender should have an animal\r\n\t\tuint animalNumber2 = studentExerciceSolution[msg.sender].tokenOfOwnerByIndex(msg.sender, 0);\r\n\r\n        bool wasFeinteAccepted = false;\r\n\t\ttry studentExerciceSolution[msg.sender].offerForReproduction(animalNumber2, 0.0001 ether)\r\n\t\t{\r\n\t\t\twasFeinteAccepted = true;\r\n        } \r\n        catch \r\n        {\r\n            // This is executed in case revert() was used.\r\n            wasFeinteAccepted = false;\r\n        }\r\n        require(!wasFeinteAccepted, \"I was able to set a price for an animal which is not mine\");\r\n\r\n\t\t// Crediting points\r\n\t\tif (!exerciceProgression[msg.sender][72])\r\n\t\t{\r\n\t\t\texerciceProgression[msg.sender][72] = true;\r\n\t\t\tTDERC20.distributeTokens(msg.sender, 1);\r\n\t\t}\r\n\t}\r\n\r\n\tfunction ex7c_payForReproduction(uint animalAvailableForReproduction)\r\n\tpublic\r\n\t{\r\n\t\t// Check animal is available for reproduction\r\n\t\trequire(studentExerciceSolution[msg.sender].canReproduce(animalAvailableForReproduction), \"Offered animal not available for reproduction yet\" );\r\n\t\t\r\n\t\t// Checking animal is not ours \r\n\t\trequire(studentExerciceSolution[msg.sender].ownerOf(animalAvailableForReproduction) != address(this), \"Offered animal shouldn't belong to Evaluator\");\r\n\r\n\t\t// Selecting one of our animal for reproduction\r\n\t\tuint animalNumber = studentExerciceSolution[msg.sender].tokenOfOwnerByIndex(address(this), 0);\r\n\r\n\t\t// Check we are not able to reproduce yet\r\n\t\trequire(studentExerciceSolution[msg.sender].authorizedBreederToReproduce(animalAvailableForReproduction) != address(this), \"I am already allowed to reproduce\");\r\n\t\tuint reproductionPrice = studentExerciceSolution[msg.sender].reproductionPrice(animalAvailableForReproduction);\r\n\r\n\t\t// Try to reproduce without paying\r\n\t\tstring memory name = readName(msg.sender);\r\n\t\tbool wings = readWings(msg.sender);\r\n\t\tuint legs = readLegs(msg.sender);\r\n\t\tuint sex = readSex(msg.sender);\r\n\r\n\t\tbool wasReproductionAccepted = false;\r\n\t\ttry studentExerciceSolution[msg.sender].declareAnimalWithParents(sex, legs, wings, name, animalNumber, animalAvailableForReproduction)\r\n\t\t{\r\n\t\t\twasReproductionAccepted = true;\r\n        } \r\n        catch \r\n        {\r\n            // This is executed in case revert() was used.\r\n            wasReproductionAccepted = false;\r\n        }\r\n        require(!wasReproductionAccepted, \"I was able to reproduce an unavailable animal\");\r\n\r\n        \r\n\t\t// Pay for reproduction\r\n\t\trequire(address(this).balance >= reproductionPrice, \"Your reproduction is too expensive for me\");\r\n\t\tstudentExerciceSolution[msg.sender].payForReproduction.value(reproductionPrice)(animalAvailableForReproduction);\t\t\r\n\t\trequire(studentExerciceSolution[msg.sender].authorizedBreederToReproduce(animalAvailableForReproduction) == address(this), \"I am not allowed to reproduce\");\r\n\r\n\t\t// Reproduce\r\n\t\tex7a_breedAnimalWithParents(animalNumber, animalAvailableForReproduction);\r\n\t\trequire(studentExerciceSolution[msg.sender].authorizedBreederToReproduce(animalAvailableForReproduction) != address(this), \"I should not be able to reproduce\");\r\n\r\n\t\t// Crediting points\r\n\t\tif (!exerciceProgression[msg.sender][73])\r\n\t\t{\r\n\t\t\texerciceProgression[msg.sender][73] = true;\r\n\t\t\tTDERC20.distributeTokens(msg.sender, 1);\r\n\t\t}\r\n\r\n\t}\r\n\r\n\t/* Internal functions and modifiers */ \r\n\tfunction submitExercice(IExerciceSolution studentExercice)\r\n\tpublic\r\n\t{\r\n\t\t// Checking this contract was not used by another group before\r\n\t\trequire(!hasBeenPaired[address(studentExercice)]);\r\n\r\n\t\t// Assigning passed ERC20 as student ERC20\r\n\t\tstudentExerciceSolution[msg.sender] = studentExercice;\r\n\t\thasBeenPaired[address(studentExercice)] = true;\r\n\t}\r\n\r\n\tmodifier onlyTeachers() \r\n\t{\r\n\r\n\t    require(TDERC20.teachers(msg.sender));\r\n\t    _;\r\n\t}\r\n\r\n\tfunction _compareStrings(string memory a, string memory b) \r\n\tinternal \r\n\tpure \r\n\treturns (bool) \r\n\t{\r\n    \treturn (keccak256(abi.encodePacked((a))) == keccak256(abi.encodePacked((b))));\r\n\t}\r\n\r\n\tfunction bytes32ToString(bytes32 _bytes32) \r\n\tpublic \r\n\tpure returns (string memory) \r\n\t{\r\n        uint8 i = 0;\r\n        while(i < 32 && _bytes32[i] != 0) {\r\n            i++;\r\n        }\r\n        bytes memory bytesArray = new bytes(i);\r\n        for (i = 0; i < 32 && _bytes32[i] != 0; i++) {\r\n            bytesArray[i] = _bytes32[i];\r\n        }\r\n        return string(bytesArray);\r\n    }\r\n\r\n    function readName(address studentAddres)\r\n\tpublic\r\n\tview\r\n\treturns(string memory)\r\n\t{\r\n\t\treturn randomNames[assignedRank[studentAddres]];\r\n\t}\r\n\r\n\tfunction readLegs(address studentAddres)\r\n\tpublic\r\n\tview\r\n\treturns(uint256)\r\n\t{\r\n\t\treturn randomLegs[assignedRank[studentAddres]];\r\n\t}\r\n\r\n\tfunction readSex(address studentAddres)\r\n\tpublic\r\n\tview\r\n\treturns(uint256)\r\n\t{\r\n\t\treturn randomSex[assignedRank[studentAddres]];\r\n\t}\r\n\r\n\tfunction readWings(address studentAddres)\r\n\tpublic\r\n\tview\r\n\treturns(bool)\r\n\t{\r\n\t\treturn randomWings[assignedRank[studentAddres]];\r\n\t}\r\n\r\n\tfunction setRandomValuesStore(string[20] memory _randomNames, uint256[20] memory _randomLegs, uint256[20] memory _randomSex, bool[20] memory _randomWings) \r\n\tpublic \r\n\tonlyTeachers\r\n\t{\r\n\t\trandomNames = _randomNames;\r\n\t\trandomLegs = _randomLegs;\r\n\t\trandomSex = _randomSex;\r\n\t\trandomWings = _randomWings;\r\n\t\tnextValueStoreRank = 0;\r\n\t\tfor (uint i = 0; i < 20; i++)\r\n\t\t{\r\n\t\t\temit newRandomAnimalAttributes(_randomNames[i], _randomLegs[i], _randomSex[i], _randomWings[i]);\r\n\t\t}\r\n\t}\r\n\r\n}\r\n",
  "sourcePath": "D:\\Dossier Alexis\\Administratif\\Ecole\\Cours\\S7\\Blockchain Programming\\TD6\\erc721-101-1\\contracts\\Evaluator2.sol",
  "compiler": {
    "name": "solc",
    "version": "0.6.2+commit.bacdbe57.Emscripten.clang"
  },
  "schemaVersion": "3.4.3",
  "updatedAt": "2021-12-10T13:17:36.177Z",
  "devdoc": {
    "methods": {}
  },
  "userdoc": {
    "methods": {}
  }
}