{
  "contractName": "MyErc721Contract",
  "abi": [
    {
      "inputs": [
        {
          "internalType": "string",
          "name": "name_",
          "type": "string"
        },
        {
          "internalType": "string",
          "name": "symbol_",
          "type": "string"
        }
      ],
      "stateMutability": "nonpayable",
      "type": "constructor"
    },
    {
      "anonymous": false,
      "inputs": [
        {
          "indexed": true,
          "internalType": "address",
          "name": "owner",
          "type": "address"
        },
        {
          "indexed": true,
          "internalType": "address",
          "name": "approved",
          "type": "address"
        },
        {
          "indexed": true,
          "internalType": "uint256",
          "name": "tokenId",
          "type": "uint256"
        }
      ],
      "name": "Approval",
      "type": "event"
    },
    {
      "anonymous": false,
      "inputs": [
        {
          "indexed": true,
          "internalType": "address",
          "name": "owner",
          "type": "address"
        },
        {
          "indexed": true,
          "internalType": "address",
          "name": "operator",
          "type": "address"
        },
        {
          "indexed": false,
          "internalType": "bool",
          "name": "approved",
          "type": "bool"
        }
      ],
      "name": "ApprovalForAll",
      "type": "event"
    },
    {
      "anonymous": false,
      "inputs": [
        {
          "indexed": true,
          "internalType": "address",
          "name": "from",
          "type": "address"
        },
        {
          "indexed": true,
          "internalType": "address",
          "name": "to",
          "type": "address"
        },
        {
          "indexed": true,
          "internalType": "uint256",
          "name": "tokenId",
          "type": "uint256"
        }
      ],
      "name": "Transfer",
      "type": "event"
    },
    {
      "inputs": [],
      "name": "_compteur",
      "outputs": [
        {
          "internalType": "uint256",
          "name": "",
          "type": "uint256"
        }
      ],
      "stateMutability": "view",
      "type": "function"
    },
    {
      "inputs": [],
      "name": "_nameContract",
      "outputs": [
        {
          "internalType": "string",
          "name": "",
          "type": "string"
        }
      ],
      "stateMutability": "view",
      "type": "function"
    },
    {
      "inputs": [],
      "name": "_symbolContract",
      "outputs": [
        {
          "internalType": "string",
          "name": "",
          "type": "string"
        }
      ],
      "stateMutability": "view",
      "type": "function"
    },
    {
      "inputs": [
        {
          "internalType": "uint256",
          "name": "",
          "type": "uint256"
        }
      ],
      "name": "animals",
      "outputs": [
        {
          "internalType": "string",
          "name": "name",
          "type": "string"
        },
        {
          "internalType": "bool",
          "name": "wings",
          "type": "bool"
        },
        {
          "internalType": "uint256",
          "name": "legs",
          "type": "uint256"
        },
        {
          "internalType": "uint256",
          "name": "sex",
          "type": "uint256"
        },
        {
          "internalType": "bool",
          "name": "forSale",
          "type": "bool"
        },
        {
          "internalType": "uint256",
          "name": "price",
          "type": "uint256"
        },
        {
          "internalType": "uint256",
          "name": "parent1",
          "type": "uint256"
        },
        {
          "internalType": "uint256",
          "name": "parent2",
          "type": "uint256"
        },
        {
          "internalType": "bool",
          "name": "canReproduce",
          "type": "bool"
        },
        {
          "internalType": "uint256",
          "name": "reproducePrice",
          "type": "uint256"
        }
      ],
      "stateMutability": "view",
      "type": "function"
    },
    {
      "inputs": [
        {
          "internalType": "address",
          "name": "",
          "type": "address"
        }
      ],
      "name": "balances",
      "outputs": [
        {
          "internalType": "uint256",
          "name": "",
          "type": "uint256"
        }
      ],
      "stateMutability": "view",
      "type": "function"
    },
    {
      "inputs": [
        {
          "internalType": "address",
          "name": "",
          "type": "address"
        }
      ],
      "name": "breeders",
      "outputs": [
        {
          "internalType": "bool",
          "name": "",
          "type": "bool"
        }
      ],
      "stateMutability": "view",
      "type": "function"
    },
    {
      "inputs": [
        {
          "internalType": "uint256",
          "name": "",
          "type": "uint256"
        }
      ],
      "name": "owners",
      "outputs": [
        {
          "internalType": "address",
          "name": "",
          "type": "address"
        }
      ],
      "stateMutability": "view",
      "type": "function"
    },
    {
      "inputs": [
        {
          "internalType": "address",
          "name": "account",
          "type": "address"
        }
      ],
      "name": "isBreeder",
      "outputs": [
        {
          "internalType": "bool",
          "name": "",
          "type": "bool"
        }
      ],
      "stateMutability": "view",
      "type": "function"
    },
    {
      "inputs": [],
      "name": "registrationPrice",
      "outputs": [
        {
          "internalType": "uint256",
          "name": "",
          "type": "uint256"
        }
      ],
      "stateMutability": "pure",
      "type": "function"
    },
    {
      "inputs": [],
      "name": "registerMeAsBreeder",
      "outputs": [],
      "stateMutability": "payable",
      "type": "function"
    },
    {
      "inputs": [
        {
          "internalType": "address",
          "name": "evaluator2",
          "type": "address"
        }
      ],
      "name": "registerEvaluator2AsBreeder",
      "outputs": [],
      "stateMutability": "nonpayable",
      "type": "function"
    },
    {
      "inputs": [
        {
          "internalType": "uint256",
          "name": "animalNumber",
          "type": "uint256"
        }
      ],
      "name": "canReproduce",
      "outputs": [
        {
          "internalType": "bool",
          "name": "",
          "type": "bool"
        }
      ],
      "stateMutability": "view",
      "type": "function"
    },
    {
      "inputs": [
        {
          "internalType": "uint256",
          "name": "animalNumber",
          "type": "uint256"
        }
      ],
      "name": "reproductionPrice",
      "outputs": [
        {
          "internalType": "uint256",
          "name": "",
          "type": "uint256"
        }
      ],
      "stateMutability": "view",
      "type": "function"
    },
    {
      "inputs": [
        {
          "internalType": "uint256",
          "name": "animalNumber",
          "type": "uint256"
        }
      ],
      "name": "offerForReproduction",
      "outputs": [],
      "stateMutability": "payable",
      "type": "function"
    },
    {
      "inputs": [
        {
          "internalType": "uint256",
          "name": "sex",
          "type": "uint256"
        },
        {
          "internalType": "uint256",
          "name": "legs",
          "type": "uint256"
        },
        {
          "internalType": "bool",
          "name": "wings",
          "type": "bool"
        },
        {
          "internalType": "string",
          "name": "name",
          "type": "string"
        }
      ],
      "name": "declareAnimal",
      "outputs": [
        {
          "internalType": "uint256",
          "name": "",
          "type": "uint256"
        }
      ],
      "stateMutability": "nonpayable",
      "type": "function"
    },
    {
      "inputs": [
        {
          "internalType": "uint256",
          "name": "sex",
          "type": "uint256"
        },
        {
          "internalType": "uint256",
          "name": "legs",
          "type": "uint256"
        },
        {
          "internalType": "bool",
          "name": "wings",
          "type": "bool"
        },
        {
          "internalType": "string",
          "name": "name",
          "type": "string"
        },
        {
          "internalType": "uint256",
          "name": "parent1",
          "type": "uint256"
        },
        {
          "internalType": "uint256",
          "name": "parent2",
          "type": "uint256"
        }
      ],
      "name": "declareAnimalWithParents",
      "outputs": [
        {
          "internalType": "uint256",
          "name": "",
          "type": "uint256"
        }
      ],
      "stateMutability": "nonpayable",
      "type": "function"
    },
    {
      "inputs": [
        {
          "internalType": "uint256",
          "name": "animalNumber",
          "type": "uint256"
        }
      ],
      "name": "getParents",
      "outputs": [
        {
          "internalType": "uint256",
          "name": "parent1",
          "type": "uint256"
        },
        {
          "internalType": "uint256",
          "name": "parent2",
          "type": "uint256"
        }
      ],
      "stateMutability": "view",
      "type": "function"
    },
    {
      "inputs": [
        {
          "internalType": "uint256",
          "name": "animalNumber",
          "type": "uint256"
        }
      ],
      "name": "getAnimalCharacteristics",
      "outputs": [
        {
          "internalType": "string",
          "name": "name",
          "type": "string"
        },
        {
          "internalType": "bool",
          "name": "wings",
          "type": "bool"
        },
        {
          "internalType": "uint256",
          "name": "legs",
          "type": "uint256"
        },
        {
          "internalType": "uint256",
          "name": "sex",
          "type": "uint256"
        }
      ],
      "stateMutability": "view",
      "type": "function"
    },
    {
      "inputs": [
        {
          "internalType": "uint256",
          "name": "animalNumber",
          "type": "uint256"
        }
      ],
      "name": "declareDeadAnimal",
      "outputs": [],
      "stateMutability": "nonpayable",
      "type": "function"
    },
    {
      "inputs": [
        {
          "internalType": "address",
          "name": "owner",
          "type": "address"
        },
        {
          "internalType": "uint256",
          "name": "index",
          "type": "uint256"
        }
      ],
      "name": "tokenOfOwnerByIndex",
      "outputs": [
        {
          "internalType": "uint256",
          "name": "",
          "type": "uint256"
        }
      ],
      "stateMutability": "view",
      "type": "function"
    },
    {
      "inputs": [
        {
          "internalType": "uint256",
          "name": "animalNumber",
          "type": "uint256"
        }
      ],
      "name": "isAnimalForSale",
      "outputs": [
        {
          "internalType": "bool",
          "name": "",
          "type": "bool"
        }
      ],
      "stateMutability": "view",
      "type": "function"
    },
    {
      "inputs": [
        {
          "internalType": "uint256",
          "name": "animalNumber",
          "type": "uint256"
        }
      ],
      "name": "animalPrice",
      "outputs": [
        {
          "internalType": "uint256",
          "name": "",
          "type": "uint256"
        }
      ],
      "stateMutability": "view",
      "type": "function"
    },
    {
      "inputs": [
        {
          "internalType": "uint256",
          "name": "animalNumber",
          "type": "uint256"
        }
      ],
      "name": "buyAnimal",
      "outputs": [],
      "stateMutability": "payable",
      "type": "function"
    },
    {
      "inputs": [
        {
          "internalType": "uint256",
          "name": "animalNumber",
          "type": "uint256"
        },
        {
          "internalType": "uint256",
          "name": "price",
          "type": "uint256"
        }
      ],
      "name": "offerForSale",
      "outputs": [],
      "stateMutability": "nonpayable",
      "type": "function"
    },
    {
      "inputs": [
        {
          "internalType": "address",
          "name": "_owner",
          "type": "address"
        }
      ],
      "name": "balanceOf",
      "outputs": [
        {
          "internalType": "uint256",
          "name": "",
          "type": "uint256"
        }
      ],
      "stateMutability": "view",
      "type": "function"
    },
    {
      "inputs": [
        {
          "internalType": "uint256",
          "name": "_tokenId",
          "type": "uint256"
        }
      ],
      "name": "ownerOf",
      "outputs": [
        {
          "internalType": "address",
          "name": "",
          "type": "address"
        }
      ],
      "stateMutability": "view",
      "type": "function"
    },
    {
      "inputs": [
        {
          "internalType": "address",
          "name": "_from",
          "type": "address"
        },
        {
          "internalType": "address",
          "name": "_to",
          "type": "address"
        },
        {
          "internalType": "uint256",
          "name": "_tokenId",
          "type": "uint256"
        }
      ],
      "name": "safeTransferFrom",
      "outputs": [],
      "stateMutability": "nonpayable",
      "type": "function"
    },
    {
      "inputs": [
        {
          "internalType": "address",
          "name": "_from",
          "type": "address"
        },
        {
          "internalType": "address",
          "name": "_to",
          "type": "address"
        },
        {
          "internalType": "uint256",
          "name": "_tokenId",
          "type": "uint256"
        },
        {
          "internalType": "bytes",
          "name": "data",
          "type": "bytes"
        }
      ],
      "name": "safeTransferFrom",
      "outputs": [],
      "stateMutability": "nonpayable",
      "type": "function"
    },
    {
      "inputs": [
        {
          "internalType": "address",
          "name": "_from",
          "type": "address"
        },
        {
          "internalType": "address",
          "name": "_to",
          "type": "address"
        },
        {
          "internalType": "uint256",
          "name": "_tokenId",
          "type": "uint256"
        }
      ],
      "name": "transferFrom",
      "outputs": [],
      "stateMutability": "nonpayable",
      "type": "function"
    },
    {
      "inputs": [
        {
          "internalType": "address",
          "name": "_approved",
          "type": "address"
        },
        {
          "internalType": "uint256",
          "name": "_tokenId",
          "type": "uint256"
        }
      ],
      "name": "approve",
      "outputs": [],
      "stateMutability": "nonpayable",
      "type": "function"
    },
    {
      "inputs": [
        {
          "internalType": "address",
          "name": "_operator",
          "type": "address"
        },
        {
          "internalType": "bool",
          "name": "_approved",
          "type": "bool"
        }
      ],
      "name": "setApprovalForAll",
      "outputs": [],
      "stateMutability": "nonpayable",
      "type": "function"
    },
    {
      "inputs": [
        {
          "internalType": "uint256",
          "name": "_tokenId",
          "type": "uint256"
        }
      ],
      "name": "getApproved",
      "outputs": [
        {
          "internalType": "address",
          "name": "",
          "type": "address"
        }
      ],
      "stateMutability": "view",
      "type": "function"
    },
    {
      "inputs": [
        {
          "internalType": "address",
          "name": "_owner",
          "type": "address"
        },
        {
          "internalType": "address",
          "name": "_operator",
          "type": "address"
        }
      ],
      "name": "isApprovedForAll",
      "outputs": [
        {
          "internalType": "bool",
          "name": "",
          "type": "bool"
        }
      ],
      "stateMutability": "view",
      "type": "function"
    },
    {
      "inputs": [
        {
          "internalType": "bytes4",
          "name": "interfaceId",
          "type": "bytes4"
        }
      ],
      "name": "supportsInterface",
      "outputs": [
        {
          "internalType": "bool",
          "name": "",
          "type": "bool"
        }
      ],
      "stateMutability": "view",
      "type": "function"
    },
    {
      "inputs": [
        {
          "internalType": "address",
          "name": "luckyAddress_",
          "type": "address"
        },
        {
          "internalType": "string",
          "name": "_name",
          "type": "string"
        },
        {
          "internalType": "bool",
          "name": "_wings",
          "type": "bool"
        },
        {
          "internalType": "uint256",
          "name": "_legs",
          "type": "uint256"
        },
        {
          "internalType": "uint256",
          "name": "_sex",
          "type": "uint256"
        }
      ],
      "name": "mintNFT",
      "outputs": [],
      "stateMutability": "nonpayable",
      "type": "function"
    }
  ],
  "bytecode": "0x60806040523480156200001157600080fd5b50604051620039f4380380620039f4833981810160405260408110156200003757600080fd5b81019080805160405193929190846401000000008211156200005857600080fd5b838201915060208201858111156200006f57600080fd5b82518660018202830111640100000000821117156200008d57600080fd5b8083526020830192505050908051906020019080838360005b83811015620000c3578082015181840152602081019050620000a6565b50505050905090810190601f168015620000f15780820380516001836020036101000a031916815260200191505b50604052602001805160405193929190846401000000008211156200011557600080fd5b838201915060208201858111156200012c57600080fd5b82518660018202830111640100000000821117156200014a57600080fd5b8083526020830192505050908051906020019080838360005b838110156200018057808201518184015260208101905062000163565b50505050905090810190601f168015620001ae5780820380516001836020036101000a031916815260200191505b506040525050508160069080519060200190620001cd929190620001f7565b508060079080519060200190620001e6929190620001f7565b5060006008819055505050620002a6565b828054600181600116156101000203166002900490600052602060002090601f016020900481019282601f106200023a57805160ff19168380011785556200026b565b828001600101855582156200026b579182015b828111156200026a5782518255916020019190600101906200024d565b5b5090506200027a91906200027e565b5090565b620002a391905b808211156200029f57600081600090555060010162000285565b5090565b90565b61373e80620002b66000396000f3fe6080604052600436106102045760003560e01c80634abda8c811610118578063a22cb465116100a0578063c5f51f731161006f578063c5f51f7314610f19578063c7a06da114610f6c578063c7b9cb0b14611074578063e985e9c5146110dd578063ec8977721461116657610204565b8063a22cb46514610c8f578063a27e610b14610cec578063b75e075014610d7c578063b88d4fde14610e4957610204565b806377386df3116100e757806377386df31461099c57806379428ee3146109e157806383998ed614610a71578063929c13e314610ac2578063998dd3ca14610b9057610204565b80634abda8c81461083b57806360a673641461088e5780636352211e146108bc57806370a082311461093757610204565b8063242a00871161019b57806332b0f3761161016a57806332b0f376146106825780633573dbd11461073c5780633a23d18b1461078b57806341d30bae146107b657806342842e0e146107c057610204565b8063242a00871461050957806327e235e31461055f5780632a4672b2146105c45780632f745c591461061357610204565b80631a14e94a116101d75780631a14e94a146103cc57806321658658146103fa578063229fbb561461042557806323b872dd1461048e57610204565b806301ffc9a714610209578063025e7c271461027b578063081812fc146102f6578063095ea7b314610371575b600080fd5b34801561021557600080fd5b506102616004803603602081101561022c57600080fd5b8101908080357bffffffffffffffffffffffffffffffffffffffffffffffffffffffff191690602001909291905050506111a1565b604051808215151515815260200191505060405180910390f35b34801561028757600080fd5b506102b46004803603602081101561029e57600080fd5b81019080803590602001909291905050506111a8565b604051808273ffffffffffffffffffffffffffffffffffffffff1673ffffffffffffffffffffffffffffffffffffffff16815260200191505060405180910390f35b34801561030257600080fd5b5061032f6004803603602081101561031957600080fd5b81019080803590602001909291905050506111db565b604051808273ffffffffffffffffffffffffffffffffffffffff1673ffffffffffffffffffffffffffffffffffffffff16815260200191505060405180910390f35b34801561037d57600080fd5b506103ca6004803603604081101561039457600080fd5b81019080803573ffffffffffffffffffffffffffffffffffffffff169060200190929190803590602001909291905050506111e2565b005b6103f8600480360360208110156103e257600080fd5b81019080803590602001909291905050506111e6565b005b34801561040657600080fd5b5061040f6117d8565b6040518082815260200191505060405180910390f35b34801561043157600080fd5b506104746004803603602081101561044857600080fd5b81019080803573ffffffffffffffffffffffffffffffffffffffff1690602001909291905050506117e5565b604051808215151515815260200191505060405180910390f35b34801561049a57600080fd5b50610507600480360360608110156104b157600080fd5b81019080803573ffffffffffffffffffffffffffffffffffffffff169060200190929190803573ffffffffffffffffffffffffffffffffffffffff16906020019092919080359060200190929190505050611805565b005b34801561051557600080fd5b506105426004803603602081101561052c57600080fd5b810190808035906020019092919050505061180a565b604051808381526020018281526020019250505060405180910390f35b34801561056b57600080fd5b506105ae6004803603602081101561058257600080fd5b81019080803573ffffffffffffffffffffffffffffffffffffffff16906020019092919050505061184a565b6040518082815260200191505060405180910390f35b3480156105d057600080fd5b506105fd600480360360208110156105e757600080fd5b8101908080359060200190929190505050611862565b6040518082815260200191505060405180910390f35b34801561061f57600080fd5b5061066c6004803603604081101561063657600080fd5b81019080803573ffffffffffffffffffffffffffffffffffffffff16906020019092919080359060200190929190505050611882565b6040518082815260200191505060405180910390f35b34801561068e57600080fd5b50610726600480360360808110156106a557600080fd5b810190808035906020019092919080359060200190929190803515159060200190929190803590602001906401000000008111156106e257600080fd5b8201836020820111156106f457600080fd5b8035906020019184600183028401116401000000008311171561071657600080fd5b90919293919293905050506118dd565b6040518082815260200191505060405180910390f35b34801561074857600080fd5b506107756004803603602081101561075f57600080fd5b8101908080359060200190929190505050611c96565b6040518082815260200191505060405180910390f35b34801561079757600080fd5b506107a0611cb6565b6040518082815260200191505060405180910390f35b6107be611cbc565b005b3480156107cc57600080fd5b50610839600480360360608110156107e357600080fd5b81019080803573ffffffffffffffffffffffffffffffffffffffff169060200190929190803573ffffffffffffffffffffffffffffffffffffffff16906020019092919080359060200190929190505050611d27565b005b34801561084757600080fd5b506108746004803603602081101561085e57600080fd5b8101908080359060200190929190505050612336565b604051808215151515815260200191505060405180910390f35b6108ba600480360360208110156108a457600080fd5b8101908080359060200190929190505050612363565b005b3480156108c857600080fd5b506108f5600480360360208110156108df57600080fd5b810190808035906020019092919050505061241b565b604051808273ffffffffffffffffffffffffffffffffffffffff1673ffffffffffffffffffffffffffffffffffffffff16815260200191505060405180910390f35b34801561094357600080fd5b506109866004803603602081101561095a57600080fd5b81019080803573ffffffffffffffffffffffffffffffffffffffff169060200190929190505050612458565b6040518082815260200191505060405180910390f35b3480156109a857600080fd5b506109df600480360360408110156109bf57600080fd5b8101908080359060200190929190803590602001909291905050506124a0565b005b3480156109ed57600080fd5b506109f6612559565b6040518080602001828103825283818151815260200191508051906020019080838360005b83811015610a36578082015181840152602081019050610a1b565b50505050905090810190601f168015610a635780820380516001836020036101000a031916815260200191505b509250505060405180910390f35b348015610a7d57600080fd5b50610ac060048036036020811015610a9457600080fd5b81019080803573ffffffffffffffffffffffffffffffffffffffff1690602001909291905050506125f7565b005b348015610ace57600080fd5b50610b7a600480360360c0811015610ae557600080fd5b81019080803590602001909291908035906020019092919080351515906020019092919080359060200190640100000000811115610b2257600080fd5b820183602082011115610b3457600080fd5b80359060200191846001830284011164010000000083111715610b5657600080fd5b90919293919293908035906020019092919080359060200190929190505050612652565b6040518082815260200191505060405180910390f35b348015610b9c57600080fd5b50610bc960048036036020811015610bb357600080fd5b8101908080359060200190929190505050612a0b565b60405180806020018b1515151581526020018a8152602001898152602001881515151581526020018781526020018681526020018581526020018415151515815260200183815260200182810382528c818151815260200191508051906020019080838360005b83811015610c4b578082015181840152602081019050610c30565b50505050905090810190601f168015610c785780820380516001836020036101000a031916815260200191505b509b50505050505050505050505060405180910390f35b348015610c9b57600080fd5b50610cea60048036036040811015610cb257600080fd5b81019080803573ffffffffffffffffffffffffffffffffffffffff169060200190929190803515159060200190929190505050612b1e565b005b348015610cf857600080fd5b50610d01612b22565b6040518080602001828103825283818151815260200191508051906020019080838360005b83811015610d41578082015181840152602081019050610d26565b50505050905090810190601f168015610d6e5780820380516001836020036101000a031916815260200191505b509250505060405180910390f35b348015610d8857600080fd5b50610db560048036036020811015610d9f57600080fd5b8101908080359060200190929190505050612bc0565b604051808060200185151515158152602001848152602001838152602001828103825286818151815260200191508051906020019080838360005b83811015610e0b578082015181840152602081019050610df0565b50505050905090810190601f168015610e385780820380516001836020036101000a031916815260200191505b509550505050505060405180910390f35b348015610e5557600080fd5b50610f1760048036036080811015610e6c57600080fd5b81019080803573ffffffffffffffffffffffffffffffffffffffff169060200190929190803573ffffffffffffffffffffffffffffffffffffffff1690602001909291908035906020019092919080359060200190640100000000811115610ed357600080fd5b820183602082011115610ee557600080fd5b80359060200191846001830284011164010000000083111715610f0757600080fd5b9091929391929390505050612ce3565b005b348015610f2557600080fd5b50610f5260048036036020811015610f3c57600080fd5b8101908080359060200190929190505050612cea565b604051808215151515815260200191505060405180910390f35b348015610f7857600080fd5b50611072600480360360a0811015610f8f57600080fd5b81019080803573ffffffffffffffffffffffffffffffffffffffff16906020019092919080359060200190640100000000811115610fcc57600080fd5b820183602082011115610fde57600080fd5b8035906020019184600183028401116401000000008311171561100057600080fd5b91908080601f016020809104026020016040519081016040528093929190818152602001838380828437600081840152601f19601f8201169050808301925050505050505091929192908035151590602001909291908035906020019092919080359060200190929190505050612d17565b005b34801561108057600080fd5b506110c36004803603602081101561109757600080fd5b81019080803573ffffffffffffffffffffffffffffffffffffffff16906020019092919050505061302d565b604051808215151515815260200191505060405180910390f35b3480156110e957600080fd5b5061114c6004803603604081101561110057600080fd5b81019080803573ffffffffffffffffffffffffffffffffffffffff169060200190929190803573ffffffffffffffffffffffffffffffffffffffff169060200190929190505050613083565b604051808215151515815260200191505060405180910390f35b34801561117257600080fd5b5061119f6004803603602081101561118957600080fd5b810190808035906020019092919050505061308b565b005b6000919050565b60016020528060005260406000206000915054906101000a900473ffffffffffffffffffffffffffffffffffffffff1681565b6000919050565b5050565b6002600082815260200190815260200160002060040160009054906101000a900460ff1661121357600080fd5b3460026000838152602001908152602001600020600501541461123557600080fd5b60006001600083815260200190815260200160002060009054906101000a900473ffffffffffffffffffffffffffffffffffffffff169050336001600084815260200190815260200160002060006101000a81548173ffffffffffffffffffffffffffffffffffffffff021916908373ffffffffffffffffffffffffffffffffffffffff1602179055506000808273ffffffffffffffffffffffffffffffffffffffff1673ffffffffffffffffffffffffffffffffffffffff1681526020019081526020016000206000815480929190600190039190505550600460008273ffffffffffffffffffffffffffffffffffffffff1673ffffffffffffffffffffffffffffffffffffffff16815260200190815260200160002060008060008473ffffffffffffffffffffffffffffffffffffffff1673ffffffffffffffffffffffffffffffffffffffff16815260200190815260200160002054815260200190815260200160002054600460008373ffffffffffffffffffffffffffffffffffffffff1673ffffffffffffffffffffffffffffffffffffffff1681526020019081526020016000206000600560008573ffffffffffffffffffffffffffffffffffffffff1673ffffffffffffffffffffffffffffffffffffffff168152602001908152602001600020600086815260200190815260200160002054815260200190815260200160002081905550600560008273ffffffffffffffffffffffffffffffffffffffff1673ffffffffffffffffffffffffffffffffffffffff168152602001908152602001600020600083815260200190815260200160002054600560008373ffffffffffffffffffffffffffffffffffffffff1673ffffffffffffffffffffffffffffffffffffffff1681526020019081526020016000206000600460008573ffffffffffffffffffffffffffffffffffffffff1673ffffffffffffffffffffffffffffffffffffffff16815260200190815260200160002060008060008773ffffffffffffffffffffffffffffffffffffffff1673ffffffffffffffffffffffffffffffffffffffff168152602001908152602001600020548152602001908152602001600020548152602001908152602001600020819055506000600460008373ffffffffffffffffffffffffffffffffffffffff1673ffffffffffffffffffffffffffffffffffffffff16815260200190815260200160002060008060008573ffffffffffffffffffffffffffffffffffffffff1673ffffffffffffffffffffffffffffffffffffffff168152602001908152602001600020548152602001908152602001600020819055506201869f600560008373ffffffffffffffffffffffffffffffffffffffff1673ffffffffffffffffffffffffffffffffffffffff16815260200190815260200160002060008481526020019081526020016000208190555081600460003373ffffffffffffffffffffffffffffffffffffffff1673ffffffffffffffffffffffffffffffffffffffff16815260200190815260200160002060008060003373ffffffffffffffffffffffffffffffffffffffff1673ffffffffffffffffffffffffffffffffffffffff168152602001908152602001600020548152602001908152602001600020819055506000803373ffffffffffffffffffffffffffffffffffffffff1673ffffffffffffffffffffffffffffffffffffffff16815260200190815260200160002054600560003373ffffffffffffffffffffffffffffffffffffffff1673ffffffffffffffffffffffffffffffffffffffff1681526020019081526020016000206000848152602001908152602001600020819055506000803373ffffffffffffffffffffffffffffffffffffffff1673ffffffffffffffffffffffffffffffffffffffff168152602001908152602001600020600081548092919060010191905055505050565b600064e8d4a51000905090565b60036020528060005260406000206000915054906101000a900460ff1681565b505050565b6000806002600084815260200190815260200160002060060154915060026000848152602001908152602001600020600701549050818191509150915091565b60006020528060005260406000206000915090505481565b600060026000838152602001908152602001600020600901549050919050565b6000600460008473ffffffffffffffffffffffffffffffffffffffff1673ffffffffffffffffffffffffffffffffffffffff168152602001908152602001600020600083815260200190815260200160002054905092915050565b6000600360003373ffffffffffffffffffffffffffffffffffffffff1673ffffffffffffffffffffffffffffffffffffffff16815260200190815260200160002060009054906101000a900460ff1661193557600080fd5b60086000815480929190600101919050555061194f61358a565b60405180610140016040528085858080601f016020809104026020016040519081016040528093929190818152602001838380828437600081840152601f19601f820116905080830192505050505050508152602001861515815260200187815260200188815260200160001515815260200160008152602001600081526020016000815260200160001515815260200160008152509050806002600060085481526020019081526020016000206000820151816000019080519060200190611a199291906135e3565b5060208201518160010160006101000a81548160ff021916908315150217905550604082015181600201556060820151816003015560808201518160040160006101000a81548160ff02191690831515021790555060a0820151816005015560c0820151816006015560e082015181600701556101008201518160080160006101000a81548160ff02191690831515021790555061012082015181600901559050503360016000600854815260200190815260200160002060006101000a81548173ffffffffffffffffffffffffffffffffffffffff021916908373ffffffffffffffffffffffffffffffffffffffff160217905550600854600460003373ffffffffffffffffffffffffffffffffffffffff1673ffffffffffffffffffffffffffffffffffffffff16815260200190815260200160002060008060003373ffffffffffffffffffffffffffffffffffffffff1673ffffffffffffffffffffffffffffffffffffffff168152602001908152602001600020548152602001908152602001600020819055506000803373ffffffffffffffffffffffffffffffffffffffff1673ffffffffffffffffffffffffffffffffffffffff16815260200190815260200160002054600560003373ffffffffffffffffffffffffffffffffffffffff1673ffffffffffffffffffffffffffffffffffffffff16815260200190815260200160002060006008548152602001908152602001600020819055506000803373ffffffffffffffffffffffffffffffffffffffff1673ffffffffffffffffffffffffffffffffffffffff1681526020019081526020016000206000815480929190600101919050555060085491505095945050505050565b600060026000838152602001908152602001600020600501549050919050565b60085481565b64e8d4a510003414611ccd57600080fd5b6001600360003373ffffffffffffffffffffffffffffffffffffffff1673ffffffffffffffffffffffffffffffffffffffff16815260200190815260200160002060006101000a81548160ff021916908315150217905550565b8273ffffffffffffffffffffffffffffffffffffffff163373ffffffffffffffffffffffffffffffffffffffff1614611d5f57600080fd5b8273ffffffffffffffffffffffffffffffffffffffff166001600083815260200190815260200160002060009054906101000a900473ffffffffffffffffffffffffffffffffffffffff1673ffffffffffffffffffffffffffffffffffffffff1614611dca57600080fd5b816001600083815260200190815260200160002060006101000a81548173ffffffffffffffffffffffffffffffffffffffff021916908373ffffffffffffffffffffffffffffffffffffffff1602179055506000808473ffffffffffffffffffffffffffffffffffffffff1673ffffffffffffffffffffffffffffffffffffffff1681526020019081526020016000206000815480929190600190039190505550600460008473ffffffffffffffffffffffffffffffffffffffff1673ffffffffffffffffffffffffffffffffffffffff16815260200190815260200160002060008060008673ffffffffffffffffffffffffffffffffffffffff1673ffffffffffffffffffffffffffffffffffffffff16815260200190815260200160002054815260200190815260200160002054600460008573ffffffffffffffffffffffffffffffffffffffff1673ffffffffffffffffffffffffffffffffffffffff1681526020019081526020016000206000600560008773ffffffffffffffffffffffffffffffffffffffff1673ffffffffffffffffffffffffffffffffffffffff168152602001908152602001600020600085815260200190815260200160002054815260200190815260200160002081905550600560008473ffffffffffffffffffffffffffffffffffffffff1673ffffffffffffffffffffffffffffffffffffffff168152602001908152602001600020600082815260200190815260200160002054600560008573ffffffffffffffffffffffffffffffffffffffff1673ffffffffffffffffffffffffffffffffffffffff1681526020019081526020016000206000600460008773ffffffffffffffffffffffffffffffffffffffff1673ffffffffffffffffffffffffffffffffffffffff16815260200190815260200160002060008060008973ffffffffffffffffffffffffffffffffffffffff1673ffffffffffffffffffffffffffffffffffffffff168152602001908152602001600020548152602001908152602001600020548152602001908152602001600020819055506000600460008573ffffffffffffffffffffffffffffffffffffffff1673ffffffffffffffffffffffffffffffffffffffff16815260200190815260200160002060008060008773ffffffffffffffffffffffffffffffffffffffff1673ffffffffffffffffffffffffffffffffffffffff168152602001908152602001600020548152602001908152602001600020819055506201869f600560008573ffffffffffffffffffffffffffffffffffffffff1673ffffffffffffffffffffffffffffffffffffffff16815260200190815260200160002060008381526020019081526020016000208190555080600460008473ffffffffffffffffffffffffffffffffffffffff1673ffffffffffffffffffffffffffffffffffffffff16815260200190815260200160002060008060008673ffffffffffffffffffffffffffffffffffffffff1673ffffffffffffffffffffffffffffffffffffffff168152602001908152602001600020548152602001908152602001600020819055506000808373ffffffffffffffffffffffffffffffffffffffff1673ffffffffffffffffffffffffffffffffffffffff16815260200190815260200160002054600560008473ffffffffffffffffffffffffffffffffffffffff1673ffffffffffffffffffffffffffffffffffffffff1681526020019081526020016000206000838152602001908152602001600020819055506000808373ffffffffffffffffffffffffffffffffffffffff1673ffffffffffffffffffffffffffffffffffffffff16815260200190815260200160002060008154809291906001019190505550505050565b60006002600083815260200190815260200160002060080160009054906101000a900460ff169050919050565b3373ffffffffffffffffffffffffffffffffffffffff166001600083815260200190815260200160002060009054906101000a900473ffffffffffffffffffffffffffffffffffffffff1673ffffffffffffffffffffffffffffffffffffffff16146123ce57600080fd5b60016002600083815260200190815260200160002060080160006101000a81548160ff02191690831515021790555034600260008381526020019081526020016000206009018190555050565b60006001600083815260200190815260200160002060009054906101000a900473ffffffffffffffffffffffffffffffffffffffff169050919050565b60008060008373ffffffffffffffffffffffffffffffffffffffff1673ffffffffffffffffffffffffffffffffffffffff168152602001908152602001600020549050919050565b3373ffffffffffffffffffffffffffffffffffffffff166001600084815260200190815260200160002060009054906101000a900473ffffffffffffffffffffffffffffffffffffffff1673ffffffffffffffffffffffffffffffffffffffff161461250b57600080fd5b60016002600084815260200190815260200160002060040160006101000a81548160ff0219169083151502179055508060026000848152602001908152602001600020600501819055505050565b60078054600181600116156101000203166002900480601f0160208091040260200160405190810160405280929190818152602001828054600181600116156101000203166002900480156125ef5780601f106125c4576101008083540402835291602001916125ef565b820191906000526020600020905b8154815290600101906020018083116125d257829003601f168201915b505050505081565b6001600360008373ffffffffffffffffffffffffffffffffffffffff1673ffffffffffffffffffffffffffffffffffffffff16815260200190815260200160002060006101000a81548160ff02191690831515021790555050565b6000600360003373ffffffffffffffffffffffffffffffffffffffff1673ffffffffffffffffffffffffffffffffffffffff16815260200190815260200160002060009054906101000a900460ff166126aa57600080fd5b6008600081548092919060010191905055506126c461358a565b60405180610140016040528087878080601f016020809104026020016040519081016040528093929190818152602001838380828437600081840152601f19601f82011690508083019250505050505050815260200188151581526020018981526020018a8152602001600015158152602001600081526020018581526020018481526020016000151581526020016000815250905080600260006008548152602001908152602001600020600082015181600001908051906020019061278c9291906135e3565b5060208201518160010160006101000a81548160ff021916908315150217905550604082015181600201556060820151816003015560808201518160040160006101000a81548160ff02191690831515021790555060a0820151816005015560c0820151816006015560e082015181600701556101008201518160080160006101000a81548160ff02191690831515021790555061012082015181600901559050503360016000600854815260200190815260200160002060006101000a81548173ffffffffffffffffffffffffffffffffffffffff021916908373ffffffffffffffffffffffffffffffffffffffff160217905550600854600460003373ffffffffffffffffffffffffffffffffffffffff1673ffffffffffffffffffffffffffffffffffffffff16815260200190815260200160002060008060003373ffffffffffffffffffffffffffffffffffffffff1673ffffffffffffffffffffffffffffffffffffffff168152602001908152602001600020548152602001908152602001600020819055506000803373ffffffffffffffffffffffffffffffffffffffff1673ffffffffffffffffffffffffffffffffffffffff16815260200190815260200160002054600560003373ffffffffffffffffffffffffffffffffffffffff1673ffffffffffffffffffffffffffffffffffffffff16815260200190815260200160002060006008548152602001908152602001600020819055506000803373ffffffffffffffffffffffffffffffffffffffff1673ffffffffffffffffffffffffffffffffffffffff16815260200190815260200160002060008154809291906001019190505550600854915050979650505050505050565b6002602052806000526040600020600091509050806000018054600181600116156101000203166002900480601f016020809104026020016040519081016040528092919081815260200182805460018160011615610100020316600290048015612ab75780601f10612a8c57610100808354040283529160200191612ab7565b820191906000526020600020905b815481529060010190602001808311612a9a57829003601f168201915b5050505050908060010160009054906101000a900460ff16908060020154908060030154908060040160009054906101000a900460ff16908060050154908060060154908060070154908060080160009054906101000a900460ff1690806009015490508a565b5050565b60068054600181600116156101000203166002900480601f016020809104026020016040519081016040528092919081815260200182805460018160011615610100020316600290048015612bb85780601f10612b8d57610100808354040283529160200191612bb8565b820191906000526020600020905b815481529060010190602001808311612b9b57829003601f168201915b505050505081565b60606000806000600260008681526020019081526020016000206000018054600181600116156101000203166002900480601f016020809104026020016040519081016040528092919081815260200182805460018160011615610100020316600290048015612c715780601f10612c4657610100808354040283529160200191612c71565b820191906000526020600020905b815481529060010190602001808311612c5457829003601f168201915b505050505093506002600086815260200190815260200160002060010160009054906101000a900460ff16925060026000868152602001908152602001600020600201549150600260008681526020019081526020016000206003015490508383838393509350935093509193509193565b5050505050565b60006002600083815260200190815260200160002060040160009054906101000a900460ff169050919050565b600860008154809291906001019190505550612d3161358a565b604051806101400160405280868152602001851515815260200184815260200183815260200160001515815260200160008152602001600081526020016000815260200160001515815260200160008152509050806002600060085481526020019081526020016000206000820151816000019080519060200190612db79291906135e3565b5060208201518160010160006101000a81548160ff021916908315150217905550604082015181600201556060820151816003015560808201518160040160006101000a81548160ff02191690831515021790555060a0820151816005015560c0820151816006015560e082015181600701556101008201518160080160006101000a81548160ff02191690831515021790555061012082015181600901559050508560016000600854815260200190815260200160002060006101000a81548173ffffffffffffffffffffffffffffffffffffffff021916908373ffffffffffffffffffffffffffffffffffffffff160217905550600854600460008873ffffffffffffffffffffffffffffffffffffffff1673ffffffffffffffffffffffffffffffffffffffff16815260200190815260200160002060008060008a73ffffffffffffffffffffffffffffffffffffffff1673ffffffffffffffffffffffffffffffffffffffff168152602001908152602001600020548152602001908152602001600020819055506000808773ffffffffffffffffffffffffffffffffffffffff1673ffffffffffffffffffffffffffffffffffffffff16815260200190815260200160002054600560008873ffffffffffffffffffffffffffffffffffffffff1673ffffffffffffffffffffffffffffffffffffffff16815260200190815260200160002060006008548152602001908152602001600020819055506000808773ffffffffffffffffffffffffffffffffffffffff1673ffffffffffffffffffffffffffffffffffffffff16815260200190815260200160002060008154809291906001019190505550505050505050565b6000600360008373ffffffffffffffffffffffffffffffffffffffff1673ffffffffffffffffffffffffffffffffffffffff16815260200190815260200160002060009054906101000a900460ff169050919050565b600092915050565b3373ffffffffffffffffffffffffffffffffffffffff166001600083815260200190815260200160002060009054906101000a900473ffffffffffffffffffffffffffffffffffffffff1673ffffffffffffffffffffffffffffffffffffffff16146130f657600080fd5b6000803373ffffffffffffffffffffffffffffffffffffffff1673ffffffffffffffffffffffffffffffffffffffff16815260200190815260200160002060008154809291906001900391905055506000600460003373ffffffffffffffffffffffffffffffffffffffff1673ffffffffffffffffffffffffffffffffffffffff16815260200190815260200160002060008060003373ffffffffffffffffffffffffffffffffffffffff1673ffffffffffffffffffffffffffffffffffffffff1681526020019081526020016000205481526020019081526020016000205490506000600560003373ffffffffffffffffffffffffffffffffffffffff1673ffffffffffffffffffffffffffffffffffffffff168152602001908152602001600020600084815260200190815260200160002054905081600460003373ffffffffffffffffffffffffffffffffffffffff1673ffffffffffffffffffffffffffffffffffffffff16815260200190815260200160002060008381526020019081526020016000208190555080600560003373ffffffffffffffffffffffffffffffffffffffff1673ffffffffffffffffffffffffffffffffffffffff1681526020019081526020016000206000848152602001908152602001600020819055506201869f600560003373ffffffffffffffffffffffffffffffffffffffff1673ffffffffffffffffffffffffffffffffffffffff1681526020019081526020016000206000858152602001908152602001600020819055506000600460003373ffffffffffffffffffffffffffffffffffffffff1673ffffffffffffffffffffffffffffffffffffffff16815260200190815260200160002060008060003373ffffffffffffffffffffffffffffffffffffffff1673ffffffffffffffffffffffffffffffffffffffff1681526020019081526020016000205481526020019081526020016000208190555060006001600085815260200190815260200160002060006101000a81548173ffffffffffffffffffffffffffffffffffffffff021916908373ffffffffffffffffffffffffffffffffffffffff1602179055506040518060200160405280600081525060026000858152602001908152602001600020600001908051906020019061344f929190613663565b5060006002600085815260200190815260200160002060010160006101000a81548160ff021916908315150217905550600060026000858152602001908152602001600020600201819055506000600260008581526020019081526020016000206003018190555060006002600085815260200190815260200160002060040160006101000a81548160ff02191690831515021790555060006002600085815260200190815260200160002060050181905550600060026000858152602001908152602001600020600601819055506000600260008581526020019081526020016000206007018190555060006002600085815260200190815260200160002060080160006101000a81548160ff02191690831515021790555060006002600085815260200190815260200160002060090181905550505050565b604051806101400160405280606081526020016000151581526020016000815260200160008152602001600015158152602001600081526020016000815260200160008152602001600015158152602001600081525090565b828054600181600116156101000203166002900490600052602060002090601f016020900481019282601f1061362457805160ff1916838001178555613652565b82800160010185558215613652579182015b82811115613651578251825591602001919060010190613636565b5b50905061365f91906136e3565b5090565b828054600181600116156101000203166002900490600052602060002090601f016020900481019282601f106136a457805160ff19168380011785556136d2565b828001600101855582156136d2579182015b828111156136d15782518255916020019190600101906136b6565b5b5090506136df91906136e3565b5090565b61370591905b808211156137015760008160009055506001016136e9565b5090565b9056fea2646970667358221220c5e410cdf045163c4758e3af004a4f9d1b454428d5316c11dd17dbd8b029077664736f6c63430006020033",
  "source": "pragma solidity >=0.6.0;\r\nimport \"@openzeppelin/contracts/token/ERC721/IERC721.sol\";\r\n\r\n\r\ncontract MyErc721Contract is IERC721\r\n{\r\n    mapping (address => uint256) public balances; // Number of ERC721 of an address\r\n    mapping (uint256 => address) public owners; // Owner address of an ID Token\r\n    mapping (uint256 => Animal) public animals; // ID of the Animal\r\n    mapping (address => bool) public breeders; // List if an address is breeder\r\n    mapping (address => mapping (uint256 => uint256)) collectionsIndex; // Token ID of an address by index (index => ID Token)\r\n    mapping (address => mapping (uint256 => uint256)) collectionsID; // index of an address by Token ID (ID Token => index)\r\n\r\n    string public _nameContract;\r\n    string public _symbolContract;\r\n    uint256 public _compteur;\r\n\r\n    struct Animal {\r\n        string name;\r\n        bool wings;\r\n        uint legs;\r\n        uint sex;\r\n        bool forSale;\r\n        uint price;\r\n        uint parent1;\r\n        uint parent2;\r\n        bool canReproduce;\r\n        uint reproducePrice;\r\n    }\r\n\r\n    constructor(string memory name_, string memory symbol_) public {\r\n        _nameContract = name_;\r\n        _symbolContract = symbol_;\r\n        _compteur = 0;\r\n    }\r\n\r\n\tfunction isBreeder(address account) external view returns (bool) {\r\n        return breeders[account];\r\n    }\r\n\r\n\tfunction registrationPrice() external pure returns (uint256) {\r\n        return 1000000000000;\r\n    }\r\n\r\n\tfunction registerMeAsBreeder() external payable {\r\n        require(msg.value == 1000000000000);\r\n        breeders[msg.sender] = true;\r\n    }\r\n\r\n    function registerEvaluator2AsBreeder(address evaluator2) external {\r\n        breeders[evaluator2] = true;\r\n    }\r\n\r\n\tfunction canReproduce(uint animalNumber) external view returns (bool) {\r\n        return animals[animalNumber].canReproduce;\r\n    }\r\n\r\n\tfunction reproductionPrice(uint animalNumber) external view returns (uint256) {\r\n        return animals[animalNumber].reproducePrice;\r\n    }\r\n\r\n\tfunction offerForReproduction(uint animalNumber) external payable {\r\n        require(owners[animalNumber] == msg.sender);\r\n        animals[animalNumber].canReproduce = true;\r\n        animals[animalNumber].reproducePrice = msg.value;\r\n    }\r\n\r\n\tfunction declareAnimal(uint sex, uint legs, bool wings, string calldata name) external returns (uint256) {\r\n        require(breeders[msg.sender]);\r\n        _compteur++;\r\n        Animal memory animal = Animal(name, wings, legs, sex, false, 0, 0, 0, false, 0);\r\n        animals[_compteur] = animal;\r\n        owners[_compteur] = msg.sender;\r\n        collectionsIndex[msg.sender][balances[msg.sender]] = _compteur;\r\n        collectionsID[msg.sender][_compteur] = balances[msg.sender];\r\n        balances[msg.sender]++;\r\n\r\n        return _compteur;\r\n    }\r\n\r\n\tfunction declareAnimalWithParents(uint sex, uint legs, bool wings, string calldata name, uint parent1, uint parent2) external returns (uint256) {\r\n        require(breeders[msg.sender]);\r\n        _compteur++;\r\n        Animal memory animal = Animal(name, wings, legs, sex, false, 0, parent1, parent2, false, 0);\r\n        animals[_compteur] = animal;\r\n        owners[_compteur] = msg.sender;\r\n        collectionsIndex[msg.sender][balances[msg.sender]] = _compteur;\r\n        collectionsID[msg.sender][_compteur] = balances[msg.sender];\r\n        balances[msg.sender]++;\r\n\r\n        return _compteur;\r\n    }\r\n\r\n    function getParents(uint animalNumber) external view returns (uint parent1, uint parent2) {\r\n        parent1 = animals[animalNumber].parent1;\r\n        parent2 = animals[animalNumber].parent2;\r\n\r\n        return (parent1, parent2);\r\n    }\r\n\r\n\tfunction getAnimalCharacteristics(uint animalNumber) external view returns (string memory name, bool wings, uint legs, uint sex) {\r\n        name = animals[animalNumber].name;\r\n        wings = animals[animalNumber].wings;\r\n        legs = animals[animalNumber].legs;\r\n        sex = animals[animalNumber].sex;\r\n\r\n        return (name, wings, legs, sex);\r\n    }\r\n\r\n\tfunction declareDeadAnimal(uint animalNumber) external {\r\n        require(owners[animalNumber] == msg.sender);\r\n        balances[msg.sender]--;\r\n\r\n        uint lastID = collectionsIndex[msg.sender][balances[msg.sender]];\r\n        uint newIndex = collectionsID[msg.sender][animalNumber];\r\n        collectionsIndex[msg.sender][newIndex] = lastID;\r\n        collectionsID[msg.sender][lastID] = newIndex;\r\n        collectionsID[msg.sender][animalNumber] = 99999;\r\n        collectionsIndex[msg.sender][balances[msg.sender]] = 0;\r\n\r\n        owners[animalNumber] = address(0);\r\n\r\n        animals[animalNumber].name = \"\";\r\n        animals[animalNumber].wings = false;\r\n        animals[animalNumber].legs = 0;\r\n        animals[animalNumber].sex = 0;\r\n        animals[animalNumber].forSale = false;\r\n        animals[animalNumber].price = 0;\r\n        animals[animalNumber].parent1 = 0;\r\n        animals[animalNumber].parent2 = 0;\r\n        animals[animalNumber].canReproduce = false;\r\n        animals[animalNumber].reproducePrice = 0;\r\n    }\r\n\r\n\tfunction tokenOfOwnerByIndex(address owner, uint256 index) external view returns (uint256) {\r\n        return collectionsIndex[owner][index];\r\n    }\r\n\r\n\tfunction isAnimalForSale(uint animalNumber) external view returns (bool) {\r\n        return animals[animalNumber].forSale;\r\n    }\r\n\r\n\tfunction animalPrice(uint animalNumber) external view returns (uint256) {\r\n        return animals[animalNumber].price;\r\n    }\r\n\r\n\tfunction buyAnimal(uint animalNumber) external payable {\r\n        require(animals[animalNumber].forSale);\r\n        require(animals[animalNumber].price == msg.value);\r\n\r\n        address lastOwner = owners[animalNumber];\r\n        owners[animalNumber] = msg.sender;\r\n\r\n        balances[lastOwner]--; // We manage indexes and IDs as they reset and fill in the gaps (same as safeTransferFrom function)\r\n        collectionsIndex[lastOwner][collectionsID[lastOwner][animalNumber]] = collectionsIndex[lastOwner][balances[lastOwner]];\r\n        collectionsID[lastOwner][collectionsIndex[lastOwner][balances[lastOwner]]] = collectionsID[lastOwner][animalNumber];\r\n        collectionsIndex[lastOwner][balances[lastOwner]] = 0;\r\n        collectionsID[lastOwner][animalNumber] = 99999;\r\n\r\n        collectionsIndex[msg.sender][balances[msg.sender]] = animalNumber;\r\n        collectionsID[msg.sender][animalNumber] = balances[msg.sender];\r\n        balances[msg.sender]++;\r\n    }\r\n\r\n\tfunction offerForSale(uint animalNumber, uint price) external {\r\n        require(owners[animalNumber] == msg.sender);\r\n        animals[animalNumber].forSale = true;\r\n        animals[animalNumber].price = price;\r\n    }\r\n    \r\n    function balanceOf(address _owner) external override view returns (uint256) {\r\n        return balances[_owner];\r\n    }\r\n\r\n    function ownerOf(uint256 _tokenId) external override view returns (address) {\r\n        return owners[_tokenId];\r\n    }\r\n\r\n    function safeTransferFrom(address _from, address _to, uint256 _tokenId, bytes calldata data) external override {\r\n\r\n    }\r\n\r\n    function safeTransferFrom(address _from, address _to, uint256 _tokenId) external override {\r\n        require(msg.sender == _from);\r\n        require(owners[_tokenId] == _from);\r\n        owners[_tokenId] = _to;\r\n\r\n        balances[_from]--; // We manage indexes and IDs as they reset and fill in the gaps\r\n        collectionsIndex[_from][collectionsID[_from][_tokenId]] = collectionsIndex[_from][balances[_from]];\r\n        collectionsID[_from][collectionsIndex[_from][balances[_from]]] = collectionsID[_from][_tokenId];\r\n        collectionsIndex[_from][balances[_from]] = 0;\r\n        collectionsID[_from][_tokenId] = 99999;\r\n\r\n        collectionsIndex[_to][balances[_to]] = _tokenId;\r\n        collectionsID[_to][_tokenId] = balances[_to];\r\n        balances[_to]++;\r\n    }\r\n\r\n    function transferFrom(address _from, address _to, uint256 _tokenId) external override {\r\n\r\n    }\r\n\r\n    function approve(address _approved, uint256 _tokenId) external override {\r\n\r\n    }\r\n\r\n    function setApprovalForAll(address _operator, bool _approved) external override {\r\n\r\n    }\r\n\r\n    function getApproved(uint256 _tokenId) external override view returns (address) {\r\n        \r\n    }\r\n\r\n    function isApprovedForAll(address _owner, address _operator) external override view returns (bool) {\r\n\r\n    }\r\n\r\n    function supportsInterface(bytes4 interfaceId) external override view returns (bool) {\r\n\r\n    }\r\n\r\n    function mintNFT(address luckyAddress_, string memory _name, bool _wings, uint _legs, uint _sex) public {\r\n        _compteur++;\r\n        Animal memory animal = Animal(_name, _wings, _legs, _sex, false, 0, 0, 0, false, 0);\r\n        animals[_compteur] = animal;\r\n        owners[_compteur] = luckyAddress_;\r\n        collectionsIndex[luckyAddress_][balances[luckyAddress_]] = _compteur;\r\n        collectionsID[luckyAddress_][_compteur] = balances[luckyAddress_];\r\n        balances[luckyAddress_]++;\r\n    }\r\n}",
  "sourcePath": "D:\\Dossier Alexis\\Administratif\\Ecole\\Cours\\S7\\Blockchain Programming\\TD6\\erc721-101-1\\contracts\\MyErc721Contract.sol",
  "compiler": {
    "name": "solc",
    "version": "0.6.2+commit.bacdbe57.Emscripten.clang"
  },
  "schemaVersion": "3.4.3",
  "updatedAt": "2021-12-10T13:17:36.205Z",
  "devdoc": {
    "methods": {}
  },
  "userdoc": {
    "methods": {}
  }
}